:100000000C9488000C94B0000C94B0000C94B000D8
:100010000C94B0000C94B0000C94B0000C94B000A0
:100020000C94B0000C94B0000C94B0000C94B00090
:100030000C94B0000C94B0000C94B0000C94B00080
:100040000C945E0A0C94B0000C94380D0C94740D52
:100050000C94B0000C94B0000C94B0000C94B00060
:100060000C94B0000C94B000084AD73B3BCE016E14
:1000700084BCBFFDC12F3D6C74319ABD56833DDAFF
:100080003D00C77F11BED9E4BB4C3E916BAAAABE0E
:10009000000000803F05A84CCDB2D44EB93836A937
:1000A000020C50B9918688083CA6AAAA2ABE000074
:1000B00000803F000000070002010000030406006A
:1000C0000000000000000001020408102040800130
:1000D000020408102001020408102004040404048F
:1000E00004040402020202020203030303030300E6
:1000F0000000002300260029000000000025002841
:10010000002B0000000000240027002A00002F0E12
:1001100011241FBECFEFD8E0DEBFCDBF11E0A0E0BD
:10012000B1E0EEE5F8E202C005900D92A632B1070B
:10013000D9F712E0A6E2B1E001C01D92A83BB107D9
:10014000E1F711E0C0E1D1E004C02297FE010E9476
:100150002914CE30D107C9F70E947F0E0C94E90F05
:100160000C9400008F929F92AF92BF92EF92FF92F9
:100170000F931F93CF93DF938C01EB017C01E61A61
:10018000F70AB701882777FD8095982F0E949A116A
:10019000462F572F682F792F4A015B01C501B40103
:1001A0009F7720E030E044E353E40E94A812181641
:1001B000CCF4B8018CE4E8168FEFF8061CF468590B
:1001C0007E4F02C0685671406C1B7D0B882777FDFF
:1001D0008095982F0E949A11462F572F682F792FBC
:1001E0004A015B01C501B4010E946711CB01DF9197
:1001F000CF911F910F91FF90EF90BF90AF909F9084
:100200008F9008952F923F924F925F926F927F92BC
:100210008F929F92AF92BF92CF92DF92EF92FF9216
:100220000F931F93CF93DF93CDB7DEB72E970FB603
:10023000F894DEBF0FBECDBF86E0E8E0F1E0DE015E
:10024000179601900D928A95E1F726E0EEE0F1E035
:10025000CE010196DC0101900D922A95E1F78D8780
:100260009E8780E4882E82E4982E8FE0A82EB12C01
:100270009DC28091070181110DC08FE092E00E9424
:10028000CB0C80933201843209F090C281E08093DC
:1002900007018CC20091F30110E08FE092E00E9410
:1002A000CB0CF801EE5CFE4F80838091F301E82FC8
:1002B000F0E0EE5CFE4F90819A3009F074C210922B
:1002C000070145E050E0BE01695F7F4F82E391E0A6
:1002D0000E94F40F009709F07AC12091F501E2E342
:1002E000F1E080E090E0319101963A3269F4209398
:1002F000F50140E150E060E070E08E5C9E4F0E94AE
:10030000B40E6093F40106C023278436910559F793
:100310002093F5019091F4018091F501981355C156
:10032000609100017091010148E951E082E391E0A0
:100330000E94021090939B0180939A0160910001AA
:100340007091010148E951E080E090E00E940210C4
:1003500090939B0180939A0160910001709101013B
:1003600048E951E080E090E00E94021090939B01E8
:1003700080939A01609100017091010148E951E078
:1003800080E090E00E94021090939B0180939A017C
:100390004AE050E066E971E00E94B40E162F072F84
:1003A0003C0180919601909197014AE050E060E015
:1003B00070E001960E94B40E1B012C01A0E1B7E28F
:1003C000212F302FA3010E948B136B017C01C20CE3
:1003D000D31CE41CF51C612F702FC30124E630E010
:1003E00040E050E00E94A613CA01B9010E94981192
:1003F0002B013C01C701B601A50194010E94A6137F
:100400000E94981120E03CE742E159E40E94FF106D
:100410009B01AC01C301B2010E94321060939101B3
:1004200070939201809393019093940160910001E5
:100430007091010148E951E080E090E00E940210D3
:1004400090939B0180939A01FC018081833589F40C
:100450008091910190919201A0919301B0919401AA
:10046000B0588093910190939201A0939301B0931F
:100470009401609100017091010148E951E080E030
:1004800090E00E94021090939B0180939A014AE0B1
:1004900050E066E971E00E94B40E362E272E8C01E2
:1004A00080919601909197014AE050E060E070E001
:1004B00001960E94B40E2B013C01A0E1B7E2232D6E
:1004C000322DA8010E948B136B017C01C40CD51C3A
:1004D000E61CF71C632D722DC80124E630E040E0D5
:1004E00050E00E94A613CA01B9010E9498112B0185
:1004F0003C01C701B601A50194010E94A6130E9408
:10050000981120E03CE742E159E40E94FF109B0172
:10051000AC01C301B2010E94321060938D0170934F
:100520008E0180938F0190939001609100017091F2
:10053000010148E951E080E090E00E9402109093B0
:100540009B0180939A01FC018081873589F4809119
:100550008D0190918E01A0918F01B0919001B058C2
:1005600080938D0190938E01A0938F01B0939001A1
:10057000609100017091010148E951E080E090E054
:100580000E94021090939B0180939A010E94CB0FCE
:1005900080938C01609100017091010148E951E064
:1005A00080E090E00E94021090939B0180939A015A
:1005B0000E94CB0F9093A9018093A8018091A30181
:1005C00081608093A3011092AC011092F50145E087
:1005D00050E06D857E8582E391E00E94F40F0097E4
:1005E00009F0D1C02091F501E2E3F1E080E090E074
:1005F000319101963A3269F42093F50140E150E0DF
:1006000060E070E08E5C9E4F0E94B40E6093F40137
:1006100006C023278436910559F72093F501909160
:10062000F4018091F5019813ACC0609100017091C4
:10063000010148E951E082E391E00E9402109093A9
:100640009B0180939A01609100017091010148E93A
:1006500051E080E090E00E94021090939B01809313
:100660009A01609100017091010148E951E080E038
:1006700090E00E94021090939B0180939A016091F8
:1006800000017091010148E951E080E090E00E9492
:10069000021090939B0180939A01609100017091E8
:1006A000010148E951E080E090E00E94021090933F
:1006B0009B0180939A01609100017091010148E9CA
:1006C00051E080E090E00E94021090939B018093A3
:1006D0009A01609100017091010148E951E080E0C8
:1006E00090E00E94021090939B0180939A010E94D7
:1006F000CB0F80939501609100017091010148E951
:1007000051E080E090E00E94021090939B01809362
:100710009A01609100017091010148E951E080E087
:1007200090E00E94021090939B0180939A01609147
:1007300000017091010148E951E080E090E00E94E1
:10074000021090939B0180939A010E94CB0F97FD1A
:1007500005C09093A7018093A60104C01092A70141
:100760001092A60180919501882311F061E001C0EB
:1007700060E08CE00E94A70B8091A30182608093CF
:10078000A3011092F5018091F30190E0E2E3F1E022
:1007900001C011929F012253314082179307CCF779
:1007A0001092F30103C08F5F8093F3018FE092E01A
:1007B0000E949C0C181619060CF45BCD2E960FB6F1
:1007C000F894DEBF0FBECDBFDF91CF911F910F9187
:1007D000FF90EF90DF90CF90BF90AF909F908F9061
:1007E0007F906F905F904F903F902F9008954F9221
:1007F0005F926F927F92AF92BF92CF92DF92EF9211
:10080000FF920F931F93CF93DF93CDB7DEB72C9753
:100810000FB6F894DEBF0FBECDBF2B013C012D8378
:100820003E834F835887E986FA860B871C8723E32C
:1008300033E345E652E40E94FF100E94FC106983F6
:100840007A838B839C83A3019201C801B7010E9424
:10085000311023E333E34AE852E40E94B3122B0140
:100860003C012D813E814F815885C601B5010E9412
:10087000311023E333E34AE852E40E94B3122981A2
:100880003A814B815C810E94B312A30192010E94C4
:10089000A51021EE3EE245E652E40E94B3125B0150
:1008A0006C0120E030E040E85FE37B2D9D2D0E944D
:1008B000F810181664F020E030E044EB53E46A2DA1
:1008C0007B2D8C2D9D2D0E9432105B016C016A2DB9
:1008D0007B2D8C2D9D2D0E946711CB012C960FB680
:1008E000F894DEBF0FBECDBFDF91CF911F910F9166
:1008F000FF90EF90DF90CF90BF90AF907F906F9080
:100900005F904F9008954F925F926F927F92AF9257
:10091000BF92CF92DF92EF92FF920F931F93CF93EC
:10092000DF9300D000D0CDB7DEB72B013C01298387
:100930003A834B835C83C801B701A30192010E94F3
:10094000311023E333E34AE852E40E94B3128B01EF
:100950007C0123E333E345E652E4C301B2010E9484
:10096000FF100E94FC102B013C0129813A814B8130
:100970005C81C601B5010E94311023E333E34AE8EC
:1009800052E40E94B312A30192010E94B3122B0100
:100990003C01202F312F4E2D5F2D602F712F8E2D7A
:1009A0009F2D0E94B3126B017C01242D352D462D05
:1009B000572D642D752D862D972D0E94B3129B0106
:1009C000AC01C701B6010E9432100E941A1322E046
:1009D0003BE249EC54E40E94B3120E946C11CB013B
:1009E0000F900F900F900F90DF91CF911F910F916B
:1009F000FF90EF90DF90CF90BF90AF907F906F907F
:100A00005F904F90089582E39EEEABE0B2E4809356
:100A1000DB019093DC01A093DD01B093DE0180E067
:100A200093EEACEEB2EC8093BF019093C001A09323
:100A3000C101B093C20122E330E03093B0012093B2
:100A4000AF018DEB99E1A8E0B2E48093DF019093D0
:100A5000E001A093E101B093E20188EF93EEACEEE8
:100A6000B2EC8093C3019093C401A093C501B093ED
:100A7000C60144E650E05093B2014093B1018AEBC5
:100A800092E1A8E0B2E48093E3019093E401A093A3
:100A9000E501B093E6018FE799EEACEEB2EC8093FE
:100AA000C7019093C801A093C901B093CA015093A4
:100AB000B4014093B3018EE899E0A8E0B2E48093DA
:100AC000E7019093E801A093E901B093EA0183E77D
:100AD0009FEEACEEB2EC8093CB019093CC01A0934F
:100AE000CD01B093CE013093B6012093B50182EAD7
:100AF00096E0A8E0B2E48093EB019093EC01A09320
:100B0000ED01B093EE018BE49EEEACEEB2EC80937F
:100B1000CF019093D001A093D101B093D201309333
:100B2000B8012093B7018AE29AE0A8E0B2E480938A
:100B3000EF019093F001A093F101B093F20189EAE3
:100B40009AEEACEEB2EC8093D3019093D401A093D3
:100B5000D501B093D60184E190E09093BA018093DF
:100B6000B90108952F923F924F925F926F927F92B8
:100B70008F929F92AF92BF92CF92DF92EF92FF92AD
:100B80000F931F93CF93DF93EC010E94A80A20914B
:100B9000F6013091F701621B730B810991090E94E4
:100BA000981120E030E04AE754E40E94FF105B0116
:100BB0008C01BE01882777FD8095982F0E949A119D
:100BC0006B017C012A2D3B2D402F512FC701B6010F
:100BD0000E94B31220912C0130912D0140912E01E1
:100BE00050912F010E9432101B012C0120E030E0B7
:100BF00040EF51EC732D952D0E94F81087FD13C026
:100C000020E030E040EF51E4622D732D842D952DCE
:100C10000E94A81218166CF4212C312C30EF432EB0
:100C200041E4542E06C0212C312C90EF492E21ECAA
:100C3000522E822D932DA42DB52D80932C019093AF
:100C40002D01A0932E01B0932F016091300170917E
:100C50003101882777FD8095982F0E949A119B017A
:100C6000AC01C701B6010E9431102A2D3B2D402F47
:100C7000512F0E94FF103B018C01862F972DA02F32
:100C8000B12F8093F8019093F901A093FA01B093EA
:100C9000FB0120E030E040E251E4C701B6010E94D0
:100CA000B3120E946711882777FD8095982F0E94C4
:100CB0009A114B015C012AE037ED43E25CE3622DBF
:100CC000732D842D952D0E94B3129B01AC01C5019B
:100CD000B4010E9432100E946711882777FD809529
:100CE000982F0E949A114B015C012FE632E143E8F4
:100CF0005AE3662D772D802F912F0E94B3129B010E
:100D0000AC01C501B4010E9432100E9467116F311D
:100D1000710514F06EE170E0623E8FEF780714F415
:100D200062EE7FEF7093FD016093FC01D09331017F
:100D3000C09330010E94A80A7093F7016093F601F6
:100D40002091FC013091FD01319521953109C901B6
:100D5000DF91CF911F910F91FF90EF90DF90CF9097
:100D6000BF90AF909F908F907F906F905F904F90CB
:100D70003F902F9008952F923F924F925F926F92E3
:100D80007F928F929F92AF92BF92CF92DF92EF921B
:100D9000FF920F931F93CF93DF93EC017B010E948F
:100DA000A80A2091FE013091FF01621B730B81099B
:100DB00091090E94981120E030E04AE754E40E9433
:100DC000FF105B018C01CE19DF09BE01882777FD7A
:100DD0008095982F0E949A116B017C012A2D3B2D42
:100DE000402F512FC701B6010E94B3122091260156
:100DF0003091270140912801509129010E94321021
:100E00001B012C0120E030E040EA51E4732D952DC8
:100E10000E94F81087FD13C020E030E040EA51EC5A
:100E2000622D732D842D952D0E94A81218166CF436
:100E3000212C312C70EA472EE1EC5E2E06C0212CCD
:100E4000312C50EA452E61E4562E822D932DA42D8F
:100E5000B52D8093260190932701A0932801B0938C
:100E6000290160912A0170912B01882777FD8095D7
:100E7000982F0E949A119B01AC01C701B6010E94F4
:100E800031102A2D3B2D402F512F0E94FF103B0186
:100E90008C01862F972DA02FB12F80930002909365
:100EA0000102A0930202B093030220E030E040E888
:100EB00050E4C701B6010E94B3120E94671188274F
:100EC00077FD8095982F0E949A114B015C012FE6C7
:100ED00032E143E85AE3622D732D842D952D0E9453
:100EE000B3129B01AC01C501B4010E9432100E94F3
:100EF0006711882777FD8095982F0E949A114B01E2
:100F00005C01262D372D402F512F662D772D802FF8
:100F1000912F0E9432109B01AC01C501B4010E94C7
:100F200032100E9467116932710514F068E270E0B6
:100F3000633D8FEF780714F463ED7FEF7093050244
:100F400060930402D0932B01C0932A010E94A80A47
:100F50007093FF016093FE0180910402909105025D
:100F6000DF91CF911F910F91FF90EF90DF90CF9085
:100F7000BF90AF909F908F907F906F905F904F90B9
:100F80003F902F90089510923101109230011092ED
:100F90002C0110922D0110922E0110922F0110920F
:100FA0002B0110922A011092260110922701109213
:100FB000280110922901089560E08AE00E94A70BA1
:100FC00061E08AE00E946F0B60E089E00E94A70B5D
:100FD00061E089E00E946F0B82EA809380008AE1E1
:100FE0008093810084EC99E090938900809388003D
:100FF00088EB9BE090938B0080938A0080E49CE9CF
:10100000909387008093860008959B01AC01ACE427
:10101000B4E00E948B1324EB30E040E050E00E94EB
:10102000C81328513C4F4F4F5F4F220F331F30934F
:1010300089002093880008959B01AC01ACE4B4E0E2
:101040000E948B1324EB30E040E050E00E94C81374
:1010500028513C4F4F4F5F4F220F331F30938B006F
:1010600020938A000895CF93DF93CAE8D0E08CEAFA
:101070009AE09983888361E08DE00E94A70B6CED74
:1010800075E080E090E00E94E40A8AE89DE09983A0
:10109000888360E08DE00E94A70B6CED75E080E036
:1010A00090E00E94E40A61E08DE00E94A70B8CE1D1
:1010B0009CE0998388836CED75E080E090E0DF919F
:1010C000CF910C94E40ACF93DF938091A00181111A
:1010D00047C084E00E94DE0B019709F041C071C057
:1010E00082E00E94DE0B0197D9F320E432E44FE066
:1010F00050E061E082E00E94070CDB0124EB30E06D
:101100000E94841360527F4B824091092CE434E0AA
:1011100040E050E00E94C813309305012093040181
:1011200083E00E94DE0B0197D9F320E432E44FE024
:1011300050E061E083E00E94070CDB0124EB30E02B
:101140000E94841360527F4B824091092CE434E06A
:1011500040E050E00E94C813309303012093020145
:10116000C0910401D09105016091A6017091A70181
:101170008091A1019091A201681B790BE091060179
:10118000F0E0EE0FFF1FE355FE4F808191810E943A
:10119000BB068C0F9D1F8D3291050CF002C08DE2B5
:1011A00090E090939D0180939C0160919C017091CF
:1011B0009D01882777FD8095982FDF91CF910C9422
:1011C000050881E08093A0018BCF4F925F926F92D0
:1011D0007F928F929F92AF92BF92CF92DF92EF92C7
:1011E000FF920F931F93CF93DF93CDB7DEB72C976A
:1011F0000FB6F894DEBF0FBECDBF8091060124E08C
:10120000829FC0011124FC01E554FE4F20813181F1
:101210004281538129833A834B835C83FC01E952E9
:10122000FE4F408051806280738080918D0190914B
:101230008E01A0918F01B09190018D839E83AF8329
:10124000B887209191013091920140919301509182
:10125000940129873A874B875C87A980BA80CB8025
:10126000DC80830172019C01AD0169857A858B85E3
:101270009C850E94F7034C019093A5018093A401E3
:101280002D813E814F81588569857A858B859C8526
:101290000E9483049093AB018093AA0160900201A5
:1012A000709003016091A8017091A901C4010E948E
:1012B000B2000E94B205860D971D90939F01809306
:1012C0009E01BC01882777FD8095982F2C960FB63C
:1012D000F894DEBF0FBECDBFDF91CF911F910F916C
:1012E000FF90EF90DF90CF90BF90AF909F908F9046
:1012F0007F906F905F904F900C941C0840EC52E1EF
:1013000060E070E08FE092E00E94AF0D60E082E06C
:101310000E946F0B60E083E00E946F0B60E084E04E
:101320000E946F0B60E085E00E946F0B61E08BE034
:101330000E946F0B61E08CE00E946F0B61E08DE01A
:101340000C946F0B0E940201809195018823D1F3C8
:1013500020E030E0A90160919101709192018091AB
:101360009301909194010E94F810882359F31092F0
:10137000A3010E9402010E94E5088091A6019091BC
:10138000A7019093A2018093A10180919101909176
:101390009201A0919301B09194018093D701909311
:1013A000D801A093D901B093DA0180918D01909179
:1013B0008E01A0918F01B09190018093BB01909319
:1013C000BC01A093BD01B093BE0184E690E0909370
:1013D000AE018093AD0108950E947E090E94DC0752
:1013E0000E9433080E9403050C94A209AF92BF9299
:1013F000CF92DF92EF92FF920F931F930E94020110
:101400008091A30180FF32C061E08DE00E94A70BB4
:101410008091A3018E7F8093A3010E94E508A09094
:10142000BB01B090BC01C090BD01D090BE01E09066
:10143000D701F090D8010091D9011091DA012091E3
:101440008D0130918E0140918F01509190016091FA
:1014500091017091920180919301909194010E9469
:101460008304813A9F4010F0109206018091A301FD
:1014700081FF05C08D7F8093A3010E94630884E0F3
:101480000E94DE0B892B61F48091A6019091A70147
:101490009093AE018093AD010E94C3071092A0010A
:1014A0001092060160E08DE01F910F91FF90EF9088
:1014B000DF90CF90BF90AF900C94A70B1F920F922C
:1014C0000FB60F9211242F933F938F939F93AF9357
:1014D000BF938091060290910702A0910802B091FB
:1014E000090230910E02232F2D5F2D3720F4019633
:1014F000A11DB11D05C0232F2A570296A11DB11DA4
:1015000020930E028093060290930702A093080294
:10151000B093090280910A0290910B02A0910C02F3
:10152000B0910D020196A11DB11D80930A02909306
:101530000B02A0930C02B0930D02BF91AF919F914B
:101540008F913F912F910F900FBE0F901F90189584
:101550000F931F938FB7F894009106021091070222
:1015600020910802309109028FBFB801C9011F9173
:101570000F9108950F931F939FB7F89400910A025B
:1015800010910B0220910C0230910D0286B5A89BA0
:1015900006C08F3F21F00F5F1F4F2F4F3F4F9FBF60
:1015A000322F212F102F0027080F111D211D311D53
:1015B00042E0000F111F221F331F4A95D1F7B801D7
:1015C000C9011F910F910895CF92DF92EF92FF9280
:1015D000CF93DF936B017C010E94BA0AEB010EC02E
:1015E0000E94BA0A6C1B7D0B683E734038F081E0A4
:1015F000C81AD108E108F108C851DC4FC114D10460
:10160000E104F10469F7DF91CF91FF90EF90DF9053
:10161000CF900895789484B5826084BD84B581604C
:1016200084BD85B5826085BD85B5816085BDEEE6EA
:10163000F0E0808181608083E1E8F0E010828081C9
:1016400082608083808181608083E0E8F0E0808137
:1016500081608083E1EBF0E0808184608083E0EB57
:10166000F0E0808181608083EAE7F0E0808184603F
:10167000808380818260808380818160808380819B
:10168000806880831092C1000895833069F028F447
:101690008130A1F0823011F514C08630B1F087306E
:1016A000C1F08430D9F404C0809180008F7703C0EA
:1016B000809180008F7D80938000089584B58F771E
:1016C00002C084B58F7D84BD08958091B0008F776E
:1016D00003C08091B0008F7D8093B0000895CF93B8
:1016E000DF9390E0FC01E953FF4F4491FC01E55288
:1016F000FF4F8491882341F190E0880F991FFC01EE
:10170000ED5FFE4F25913491D90187509F4FFC0129
:1017100085919491C82FD92F9FB7F8948C9161111E
:1017200006C0409584238C938881842308C062304E
:1017300041F4242F209582238C938881842B8883E5
:1017400002C0842B8C939FBFDF91CF9108950F939C
:101750001F93CF93DF931F92CDB7DEB7282F30E0D2
:10176000F901ED54FF4F8491F901E953FF4F1491B2
:10177000F901E552FF4F04910023D1F0882321F0B5
:1017800069830E94450B6981E02FF0E0EE0FFF1F97
:10179000E750FF4F85919491DC019FB7F8948C91AD
:1017A000611103C01095812301C0812B8C939FBFD1
:1017B0000F90DF91CF911F910F910895CF93DF93F9
:1017C000282F30E0F901ED54FF4F8491F901E953DE
:1017D000FF4FD491F901E552FF4FC491CC2389F01A
:1017E00081110E94450BEC2FF0E0EE0FFF1FE1513D
:1017F000FF4F85919491DC018C918D2321E030E0A5
:1018000011F420E030E0C901DF91CF9108958F926B
:101810009F92AF92BF92CF92DF92EF92FF920F937F
:101820001F93CF93DF9390E0FC01E953FF4FD491D6
:10183000FC01E552FF4F7491611102C0C0E001C08C
:10184000CD2FDA01C901BF70672F70E0660F771FD7
:1018500061517F4F812C912C5401FB010591149112
:1018600010C0C12CD12C7601C394C80CD91CEA1C21
:10187000FB1C88169906AA06BB0609F44BC0460154
:101880005701F801E081ED23EC1759F310C0C12C8A
:10189000D12C7601C394C80CD91CEA1CFB1C8816F9
:1018A0009906AA06BB06B1F14601570103C0FB0128
:1018B00005911491F801E081ED23EC13E8CF88192C
:1018C0009909AA09BB0920E030E0A901FB01659153
:1018D000749109C0281739074A075B07D9F02F5FB1
:1018E0003F4F4F4F5F4FFB01E081ED23EC1791F32A
:1018F000A5E1B0E00E948B138B019C01005F1F4F9C
:101900002F4F3F4F84E036952795179507958A9579
:10191000D1F703C000E010E09801B801C901DF91E0
:10192000CF911F910F91FF90EF90DF90CF90BF90DC
:10193000AF909F908F900895FC0184859585FC0160
:10194000E05CFF4F20813181FC01EE5BFF4F808125
:101950009181281B390B2F733327C9010895FC018E
:1019600084859585FC01E05CFF4F40815181FC013D
:10197000EE5BFF4F208131814217530741F0019008
:10198000F081E02DE80FF91F208130E002C02FEF39
:101990003FEFC9010895FC0184859585FC01E05C59
:1019A000FF4F40815181FC01EE5BFF4F208131816F
:1019B0004217530781F0A081B181A80FB91F8C9104
:1019C000208131812F5F3F4F2F7333273183208355
:1019D000282F30E002C02FEF3FEFC9010895FC012E
:1019E00086859785FC01E05CFF4FDC01AE5BBF4F55
:1019F000408151812D913C91119742175307C1F7B6
:101A00000895CF93DF93FC0186859785DC01A05C68
:101A1000BF4F2D913C9111972F5F3F4F2F7333276D
:101A2000EC01CE5BDF4F4881598124173507D9F38C
:101A30000D90BC91A02DA80FB91F6C93A685B785FA
:101A4000A05CBF4F11963C932E93A689B7892C9129
:101A500081E090E0058C02C0880F991F0A94E2F79C
:101A6000282B2C9381E090E0DF91CF910895089589
:101A70001F920F920FB60F9211242F933F934F9303
:101A80008F939F93EF93FF934091C6008091B20292
:101A90009091B30201968F7399272091B4023091EF
:101AA000B5028217930759F0E091B202F091B302A8
:101AB000EE58FD4F40839093B3028093B202FF91A2
:101AC000EF919F918F914F913F912F910F900FBE6A
:101AD0000F901F9018958FE092E00E949C0C892B2C
:101AE00011F00C94370D08951F920F920FB60F92BC
:101AF00011242F933F938F939F93EF93FF93209104
:101B00006E0230916F0280917002909171022817DD
:101B1000390731F48091C1008F7D8093C10014C0DA
:101B2000E0917002F0917102E25DFD4F20818091A1
:101B300070029091710201968F73992790937102B0
:101B4000809370022093C600FF91EF919F918F9137
:101B50003F912F910F900FBE0F901F901895CF922D
:101B6000DF92EF92FF92CF93DF93EC016A017B014A
:101B7000411581EE580761057105F9F0EC89FD8981
:101B800081E090E00E8C02C0880F991F0A94E2F762
:101B9000808360E079E08DE390E0A70196010E94E8
:101BA000A61321503109410951095695479537959A
:101BB0002795211580E1380798F0EC89FD8910827E
:101BC00060E874E88EE190E0A70196010E94A613F8
:101BD0002150310941095109569547953795279567
:101BE000E889F9893083EA89FB892083EE89FF89B6
:101BF000408181E090E09C010A8C02C0220F331FDB
:101C00000A94E2F7422B4083EE89FF8940819C01D0
:101C10000B8C02C0220F331F0A94E2F7422B408341
:101C2000EE89FF8940819C010C8C02C0220F331F7A
:101C30000A94E2F7422B4083EE89FF8920810D8CC4
:101C400002C0880F991F0A94E2F78095822380834F
:101C5000DF91CF91FF90EF90DF90CF900895109299
:101C600012021092110288EE93E0A0E0B0E080939F
:101C7000130290931402A0931502B09316028AE106
:101C800091E09093100280930F0282E792E090938C
:101C90001C0280931B028EE292E090931E028093BE
:101CA0001D0285EC90E09093200280931F0284EC4B
:101CB00090E0909322028093210280EC90E0909338
:101CC00024028093230281EC90E09093260280937B
:101CD000250286EC90E0909328028093270284E00E
:101CE0008093290283E080932A0287E080932B026D
:101CF00085E080932C0281E080932D0208950E945C
:101D00000A0B0E94EC09CBE6DDE00E94F609209761
:101D1000E1F30E946B0DF9CFCF92DF92EF92FF9229
:101D20000F931F93CF93DF936C01EB017A01E60EC3
:101D3000F71E00E010E00BC06991D601ED91FC9117
:101D40000190F081E02DC6010995080F191FCE15ED
:101D5000DF0591F7C801DF91CF911F910F91FF909F
:101D6000EF90DF90CF900895A0E0B0E0EAEBFEE0C6
:101D70000C94E6132B018A016115710519F0FB0122
:101D8000808391830115110539F0980122503109A2
:101D90002332310508F0E6C07C01F701C1917F01D3
:101DA0003F018C2F90E00E94EC0F892BB1F7CD32D0
:101DB00029F4F701C1913F01D1E006C0CB3219F4FB
:101DC000F701C1913F01D0E00115110509F4D8C018
:101DD0000031110581F4D0C0F3018081883719F0FA
:101DE000883509F0C3C0F301C181F2E06F0E711CA8
:101DF000D26000E110E008301105D9F024F402307F
:101E00001105F9F407C00A30110551F00031110530
:101E1000C1F425C0C12CD12CE12C30E4F32E24C018
:101E20000AE010E02CECC22EDC2CEC2C2CE0F22E84
:101E30001BC008E010E0C12CD12CE12C90E1F92E60
:101E400013C09801442737FD4095542F60E070E09F
:101E500080E090E80E94A61369017A0105C0C12CB8
:101E6000D12CE12C88E0F82E40E060E070E0CB015E
:101E70004801AA2497FCA094BA2CEC2FE053EA3036
:101E800060F02C2F21542A3110F4E75006C02C2F7B
:101E900021562A3128F5EC2FE7552E2F30E0201758
:101EA0003107F4F447FD18C0C616D706E806F90650
:101EB00080F09B01AC01C501B4010E9496136E0F26
:101EC000711D811D911D61307105810520E892070A
:101ED00010F04FEF01C041E0F301C1913F01CDCFC0
:101EE0004114510491F0442339F0F1E06F1A710864
:101EF000F2017182608209C0D1FF1BC0F2E06F1A4B
:101F00007108F2017182608214C047FF12C0D0FFD5
:101F100005C060E070E080E090E804C06FEF7FEF04
:101F20008FEF9FE722E230E03093B7022093B602B2
:101F300016C0D0FF08C090958095709561957F4F31
:101F40008F4F9F4F0CC097FF0AC082E290E09093A2
:101F5000B7028093B6026FEF7FEF8FEF9FE76B01C1
:101F60007C0112C0C12CD12C76010EC0C0E301153A
:101F7000110509F45ECF3FCFC03309F03CCF2CCF21
:101F8000C03309F04DCF28CFB601C701CDB7DEB7BA
:101F9000E0E10C940214FC0188279927E894219130
:101FA0002032E9F3293010F02E30C8F32B3241F003
:101FB0002D3239F4689404C00E942910820F911DBB
:101FC000219120532A30C0F31EF4909581959F4FA4
:101FD0000895F8940C942D1491116DC3803219F06A
:101FE00089508550D0F70895FB01DC0141505040E5
:101FF00030F08D910190801919F40020B9F7881BF9
:10200000990B0895FA01A191B081009719F41097E6
:10201000E1F0CD01DC01CD010D90002011F4C001F3
:1020200013C0FB012191222319F02015D9F7F3CF1A
:10203000FB012191201519F41E92119606C022234E
:10204000C1F70D900020A1F7D001FA01A193B08350
:1020500008957AE0979F902D879F802D910D1124F0
:1020600008955058BB27AA270ED027C2F0D130F0D0
:10207000F5D120F031F49F3F11F41EF4C0C10EF4ED
:10208000E095E7FBB6C1E92F3AD280F3BA176207B1
:1020900073078407950718F071F49EF552C20EF489
:1020A000E0950B2EBA2FA02D0B01B90190010C0168
:1020B000CA01A0011124FF27591B99F0593F50F480
:1020C000503E68F11A16F040A22F232F342F4427D8
:1020D000585FF3CF469537952795A795F0405395D0
:1020E000C9F77EF41F16BA0B620B730B840BBAF0A0
:1020F0009150A1F0FF0FBB1F661F771F881FC2F70B
:102100000EC0BA0F621F731F841F48F4879577951E
:102110006795B795F7959E3F08F0B3CF9395880FD5
:1021200008F09927EE0F97958795089590D158F06C
:1021300080E891E009F49EEF91D128F040E851E069
:1021400059F45EEF09C05BC1FCC1E92FE078D7D13B
:1021500068F3092E052AC1F32617370748075907E0
:1021600038F00E2E07F8E02569F0E025E0640AC09B
:10217000EF6307F8009407FADB01B9019D01DC0168
:10218000CA01AD01EF934AD098D10AD05F9155238F
:1021900031F02BED3FE049E450FD49EC63CF089569
:1021A000DF93DD27B92FBF7740E85FE316161706E8
:1021B00048075B0710F4D92FCFD19F938F937F935C
:1021C0006F9376D2E8E6F0E01DD177D12F913F9161
:1021D0004F915F91D4D1DD2349F09058A2EA2AEDC6
:1021E0003FE049EC5FE3D0785D274DDFDF9165C1CB
:1021F000DCD008F481E0089539D1E3956FC10CD0AB
:102200005CC12CD140F023D130F021F45F3F19F0B4
:10221000F0C0511197C1F3C072D198F39923C9F35B
:102220005523B1F3951B550BBB27AA2762177307DC
:10223000840738F09F5F5F4F220F331F441FAA1F90
:10224000A9F333D00E2E3AF0E0E830D09150504050
:10225000E695001CCAF729D0FE2F27D0660F771FFE
:10226000881FBB1F261737074807AB07B0E809F0E0
:10227000BB0B802DBF01FF2793585F4F2AF09E3F75
:10228000510568F0B6C05EC15F3FECF3983EDCF3E9
:10229000869577956795B795F7959F5FC9F7880FEE
:1022A000911D9695879597F90895E1E0660F771F40
:1022B000881FBB1F621773078407BA0720F0621BD1
:1022C000730B840BBA0BEE1F88F7E095089504D0CA
:1022D0006894B11137C108951AD188F09F5790F0D2
:1022E000B92F9927B751A0F0D1F0660F771F881F3B
:1022F000991F1AF0BA95C9F712C0B13081F021D1F7
:10230000B1E008951EC1672F782F8827B85F39F094
:10231000B93FCCF3869577956795B395D9F73EF499
:1023200090958095709561957F4F8F4F9F4F089541
:10233000E89409C097FB3EF490958095709561955F
:102340007F4F8F4F9F4F9923A9F0F92F96E9BB2715
:102350009395F695879577956795B795F111F8CF91
:10236000FAF4BB0F11F460FF1BC06F5F7F4F8F4FFC
:102370009F4F16C0882311F096E911C0772321F0F2
:102380009EE8872F762F05C0662371F096E8862F8A
:1023900070E060E02AF09A95660F771F881FDAF7E1
:1023A000880F9695879597F90895990F0008550F0E
:1023B000AA0BE0E8FEEF16161706E807F907C0F0CB
:1023C00012161306E407F50798F0621B730B840BD3
:1023D000950B39F40A2661F0232B242B252B21F4AD
:1023E00008950A2609F4A140A6958FEF811D811D4D
:1023F000089597F99F6780E870E060E008959FEF87
:1024000080EC0895DF93CF931F930F93FF92EF9289
:10241000DF927B018C01689405C0DA2EEF01AFD00A
:10242000FE01E894A5912591359145915591AEF322
:10243000EF0129DEFE019701A801DA9479F7DF9018
:10244000EF90FF900F911F91CF91DF91089500249D
:102450000A941616170618060906089500240A9409
:1024600012161306140605060895C9CF50D0E8F3D6
:10247000E894E0E0BB279F57F0F02AED3FE049ECFD
:1024800006C0EE0FBB0F661F771F881F28F0B23AF9
:1024900062077307840728F0B25A620B730B840B30
:1024A000E3959A9572F7803830F49A95BB0F661FC2
:1024B000771F881FD2F7904803C1092E0394000CA0
:1024C00011F4882352F0BB0F40F4BF2B11F460FFCE
:1024D00004C06F5F7F4F8F4F9F4F0895EF93E0FFD2
:1024E00006C0A2EA2AED3FE049EC5FEBCCDDE5DF78
:1024F0000F90039401FC9058E5E9F0E0F4C057FD1B
:102500009058440F551F59F05F3F71F04795880F61
:1025100097FB991F61F09F3F79F0879508951216F8
:1025200013061406551FF2CF4695F1DF08C01616A4
:1025300017061806991FF1CF869571056105089455
:102540000895E894BB2766277727CB0197F908956C
:102550002CDF08F48FEF08959B01AC0160E070E080
:1025600080E89FE34CCE0BD0A8CF71DF28F076DF58
:1025700018F0952309F03DCF42CF1124E3CFBFDF00
:10258000A0F3959FD1F3950F50E0551F629FF00186
:10259000729FBB27F00DB11D639FAA27F00DB11DDF
:1025A000AA1F649F6627B00DA11D661F829F222768
:1025B000B00DA11D621F739FB00DA11D621F839FEF
:1025C000A00D611D221F749F3327A00D611D231FC5
:1025D000849F600D211D822F762F6A2F11249F5713
:1025E00050408AF0E1F088234AF0EE0FFF1FBB1F36
:1025F000661F771F881F91505040A9F79E3F5105D5
:1026000070F0F7CE9FCF5F3FECF3983EDCF38695FA
:1026100077956795B795F795E7959F5FC1F7FE2B7F
:10262000880F911D9695879597F9089511F40EF4EA
:10263000E6CE44C06CDFD0F39923D9F3CEF39F5795
:10264000550B87FF49D00024A0E640EA900180584E
:102650005695979528F4805C660F771F881F20F0A9
:1026600026173707480730F4621B730B840B2029A9
:1026700031294A2BA69517940794202531254A27FE
:1026800058F7660F771F881F20F02617370748076F
:1026900030F4620B730B840B200D311D411DA0958E
:1026A00081F7B901842F9158880F969587950895E1
:1026B0009B01AC0158CF9927882708959F3F31F09F
:1026C000915020F4879577956795B795880F911D60
:1026D0009695879597F9089591505040660F771F0A
:1026E000881FD2F708959F938F937F936F93FF93E3
:1026F000EF939B01AC0137DFEF91FF9183DE2F91C8
:102700003F914F915F912FCF0E941B14B7FF089507
:10271000821B930B08950E941B14A59F900DB49FDC
:10272000900DA49F800D911D11240895DB018F93BE
:102730009F930E948B13BF91AF91A29F800D911D1B
:10274000A39F900DB29F900D11240895A1E21A2E1F
:10275000AA1BBB1BFD010DC0AA1FBB1FEE1FFF1F45
:10276000A217B307E407F50720F0A21BB30BE40B95
:10277000F50B661F771F881F991F1A9469F76095DC
:102780007095809590959B01AC01BD01CF01089596
:10279000052E97FB16F4009407D057FD0DD00E942C
:1027A000A61307FC09D07EF49095809570956195ED
:1027B0007F4F8F4F9F4F08955095409530952195AD
:1027C0003F4F4F4F5F4F08952F923F924F925F922E
:1027D0006F927F928F929F92AF92BF92CF92DF9231
:1027E000EF92FF920F931F93CF93DF93CDB7DEB796
:1027F000CA1BDB0B0FB6F894DEBF0FBECDBF09942A
:102800002A88398848885F846E847D848C849B8480
:10281000AA84B984C884DF80EE80FD800C811B818E
:10282000AA81B981CE0FD11D0FB6F894DEBF0FBEBD
:10283000CDBFED010895A29FB001B39FC001A39F3A
:1028400001D0B29F700D811D1124911D0895EE0FCE
:0E285000FF1F0590F491E02D0994F894FFCF3E
:10285E0014015A005A0001014750524D430047508F
:10286E00474741002C0000000000010D8C0E9C0C0F
:06287E00CB0CAF0CEF0CC7
:00000001FF
