:100000000C94D3000C94FB000C94FB000C94E221A4
:100010000C9406220C942A220C94FB000C94FB00F6
:100020000C94FB000C94FB000C94FB000C94FB0064
:100030000C94FB000C94FB000C94FB000C94FB0054
:100040000C94A81B0C94FB000C942B1D0C94671DA6
:100050000C94FB000C94FB000C94FB000C94FB0034
:100060000C942C250C94FB00036EDB363D9A999979
:10007000993DABAAAA2A3E000000803F084AD73B20
:100080003BCE016E84BCBFFDC12F3D6C74319ABD67
:1000900056833DDA3D00C77F11BED9E4BB4C3E918B
:1000A0006BAAAABE000000803F072C7AA5BA6CC5D7
:1000B00090DA3B9365FC8BBC53F810FD3C56928361
:1000C0004DBD879D3AB63DCBC9BF5BBE73DA0FC944
:1000D0003F496E697469616C697A696E672049325B
:1000E0004320646576696365732E2E2E0054657314
:1000F00074696E672064657669636520636F6E6EF0
:10010000656374696F6E732E2E2E004D5055393114
:10011000353020636F6E6E656374696F6E20737522
:10012000636365737366756C004D505539313530B6
:1001300020636F6E6E656374696F6E206661696CB3
:1001400065640000000007000201000003040600CF
:10015000000000000000000102040810204080019F
:1001600002040810200102040810200404040404FE
:100170000404040202020202020303030303030055
:1001800000000023002600290000000000250028B0
:10019000002B0000000000240027002A0000951B0F
:1001A000221ECE23A41B11241FBECFEFD8E0DEBF3A
:1001B000CDBF11E0A0E0B1E0ECEFF3E502C00590A7
:1001C0000D92AC3CB107D9F714E0ACECB1E001C042
:1001D0001D92A337B107E1F711E0C4EAD1E004C0F2
:1001E0002297FE010E94ED29CE39D107C9F70E945E
:1001F000721E0C945C260C9400002F923F924F923A
:100200005F926F927F928F929F92AF92BF92CF92A6
:10021000DF92EF92FF920F931F93CF93DF93CDB7AF
:10022000DEB728970FB6F894DEBF0FBECDBF382ECD
:100230006A83942E3C832B830E94F21B6B017C010A
:10024000212C812C892D90E09E838D832801612CA7
:10025000712C41C0632D83EB93E00E94AE236A8131
:1002600083EB93E00E945E2383EB93E00E94CB2319
:10027000632D83EB93E00E94AE234D815E81421992
:1002800051094132510514F040E250E0632D83EBF7
:1002900093E00E94AB2318861F82AB80BC80A80C21
:1002A000B11C87FCBA949F81980D998383EB93E0EE
:1002B0000E940223892B71F101151105B9F10E94E9
:1002C000F21B6C197D098E099F0964157505860559
:1002D000970560F11FC0291408F4BCCF0115110562
:1002E000A1F10E94F21B6C197D098E099F0920E083
:1002F00030E0601771078207930738F1282D332704
:1003000027FD3095892D90E028173907F4F48824CB
:100310008A941BC083EB93E00E94CB23892DE0E2FB
:10032000E91508F480E2280E8980D5CF83EB93E0AD
:100330000E940B23EF81F885EA0DFB1D80838F81DE
:100340009885019698878F83AECF882D28960FB613
:10035000F894DEBF0FBECDBFDF91CF911F910F91FB
:10036000FF90EF90DF90CF90BF90AF909F908F90D5
:100370007F906F905F904F903F902F9008950F93D4
:100380001F9389019A0141E00E94FD001F910F9186
:100390000895CF92DF92EF92FF920F931F93CF9326
:1003A000DF931F92CDB7DEB7C42ED22E9701AE01D8
:1003B0004F5F5F4F0E94BF018823F1F04C2D50E04A
:1003C0004D1951094F5F5F4F61E070E002C0660F49
:1003D000771FDA94E2F761507109042E01C0660FAD
:1003E0000A94EAF72981262330E002C03595279543
:1003F0004A95E2F7F80120830F90DF91CF911F918A
:100400000F91FF90EF90DF90CF900895DF92EF92E1
:10041000FF920F931F93CF93DF931F92CDB7DEB759
:10042000D42E79019801AE014F5F5F4F0E94BF014A
:1004300061E070E001C0660FDA94EAF799819623D3
:10044000F70190830F90DF91CF911F910F91FF9053
:10045000EF90DF900895EF92FF920F931F93CF9349
:10046000DF931F92CDB7DEB7F62E042F122F682F21
:1004700083EB93E039830E94AE236F2D83EB93E0EF
:100480000E945E23E12E3981F32E07C0F7016191AE
:100490007F0183EB93E00E945E238E2D811B8017EA
:1004A000A8F383EB93E00E94CB2391E0811190E0CD
:1004B000892F0F90DF91CF911F910F91FF90EF90B7
:1004C0000895CF93DF931F92CDB7DEB749839E0186
:1004D0002F5F3F4F41E00E942B020F90DF91CF91A1
:1004E0000895DF92EF92FF920F931F93CF93DF93C4
:1004F0001F92CDB7DEB7182FF62ED42EE22E209104
:10050000000130910101AE014F5F5F4F0E94BF01BA
:10051000882319F14D2D50E04E1951094F5F5F4F5F
:10052000E1E0F0E002C0EE0FFF1FEA94E2F731973E
:10053000042E01C0EE0F0A94EAF701C0000F4A959D
:10054000EAF74E2F4095898148230E23402B49839B
:100550006F2D812F0E94610201C080E00F90DF911A
:10056000CF911F910F91FF90EF90DF900895EF9240
:10057000FF920F931F93CF93DF931F92CDB7DEB7F8
:10058000182F062FF42EE22E209100013091010148
:10059000AE014F5F5F4F0E94BF01898121E030E0D3
:1005A0000F2C01C0220F0A94EAF7EE2019F0482F11
:1005B000422B03C0422F409548234983602F812F4F
:1005C0000E9461020F90DF91CF911F910F91FF90D8
:1005D000EF90089528E6FC0120830895462F69E1F5
:1005E000FC0180810C9461020F93062F23E042E00E
:1005F0006AE1FC0180810E9471020F9108950F93BE
:10060000062F22E044E06BE1FC0180810E94710230
:100610000F9108950F93062F22E044E06CE1FC0156
:1006200080810E9471020F910895262F40E068E3B7
:10063000FC0180810C94B7020F931F93CF93DF933B
:10064000EC0100910001109101019C012F5F3F4FCF
:1006500040E06AE388810E94060281E0998191115D
:1006600001C080E0DF91CF911F910F9108958F928B
:100670009F92AF92BF92CF92DF92EF92FF920F9331
:100680001F93CF93DF93EC014B015A01690142E0C4
:1006900067E3FC0181917F010E9461026AE070E0E2
:1006A00080E090E00E942E1C41E06AE08CE00E9415
:1006B00061026AE070E080E090E00E942E1C0091F0
:1006C000000110910101970146E063E08CE00E9477
:1006D000FD009A8180E02981822BF401918380833F
:1006E0009C8180E02B81822BF501918380839E8108
:1006F00080E02D81822BF60191838083DF91CF9161
:100700001F910F91FF90EF90DF90CF90BF90AF902F
:100710009F908F900895AF92BF92CF92DF92EF9209
:10072000FF920F931F93CF93DF93EC017B015A014C
:10073000690100910001109101019C012F5F3F4F61
:1007400046E06BE388810E94FD00998180E02A8168
:10075000822BF701918380839B8180E02C81822B07
:10076000F501918380839D8180E02E81822BF601AB
:1007700091838083DF91CF911F910F91FF90EF9034
:10078000DF90CF90BF90AF900895AF92BF92CF927D
:10079000DF92EF92FF920F931F93CF93DF93EC01C1
:1007A0007B015A01690100910001109101019C0136
:1007B0002F5F3F4F46E063E488810E94FD009981EE
:1007C00080E02A81822BF701918380839B8180E0E6
:1007D0002C81822BF501918380839D8180E02E8185
:1007E000822BF60191838083DF91CF911F910F912E
:1007F000FF90EF90DF90CF90BF90AF900895262F9D
:1008000046E06BE6FC0180810C94B7020F93062F43
:1008100023E042E06BE6FC0180810E9471020F91AF
:100820000895CF93DF93EC0161E00E94060460E03D
:10083000CE010E94FF0260E0CE010E940A0360E048
:10084000CE01DF91CF910C94FF03EF92FF920F93B3
:100850001F93CF93DF93EC01E0900001F090010132
:100860008C010F5F1F4F26E046E065E788810E94FC
:10087000C9018981DF91CF911F910F91FF90EF9076
:1008800008950E94250491E0843309F090E0892FB7
:1008900008950F931F93FC010FEF1FEF9801008342
:1008A00011832283338310861186128613864FEFBD
:1008B00059EC6AE97BE3408B518B628B738B408FE1
:1008C000518F628F738F40A351A362A373A340A77C
:1008D00051A762A773A740AB51AB62AB73AB00AF3C
:1008E00011AF22AF33AFDC01A05CBF4F8FEF90E0C0
:1008F0008D939C93DF01AC5BBF4F0D931D932D93A4
:100900003C931397DF01A45BBF4F0D931D932D9371
:100910003C931397DF01AC5ABF4F1C92DF01AB5AD7
:10092000BF4F1C92DF01AB59BF4F82E08C93DF01B8
:10093000AA59BF4F1C92DF01A959BF4F1C92DF017A
:10094000A859BF4F1C92DF01A759BF4F1D921D929E
:100950001D921C921397DF01A359BF4F1D921C9249
:10096000DF01A159BF4F1D921C92EA5AFF4F10821E
:100970001F910F910895CF92DF92EF92FF920F9304
:100980001F93CF93DF93E9016115710551F0FC01CD
:10099000C088D188E288F388FB01C082D182E282DC
:1009A000F3824115510551F0FC01C08CD18CE28CD1
:1009B000F38CFA01C082D182E282F382209701F1A6
:1009C0008C01045B1F4FF80180819181A281B3816A
:1009D0008F3F9F4FAF4FBF4F61F00E94F21BF80156
:1009E0000081118122813381601B710B820B930B7B
:1009F00003C06FEF7FEFCB01688379838A839B838A
:100A0000DF91CF911F910F91FF90EF90DF90CF90EA
:100A100008958F929F92AF92BF92EF92FF920F93A1
:100A20001F93CF93DF93CDB7DEB728970FB6F89417
:100A3000DEBF0FBECDBF7B018A01AE014F5F5F4FAE
:100A4000BE016B5F7F4F0E94BB048D809E80AF8094
:100A5000B8848FEF881689EC98068AE9A8068BE39C
:100A6000B80659F0C501B4010E94DC2720E034E249
:100A700044E759E40E94412704C060E070E08AE73F
:100A800094E4382F292F862F972FA32FB22FF70109
:100A900080839183A283B383FFEF8F16F9EC9F06C7
:100AA000FAE9AF06FBE3BF0669F069817A818B81C1
:100AB0009C810E94DC2720E034E244E759E40E9454
:100AC000412704C060E070E08AE794E4382F292FC2
:100AD000862F972FA32FB22FF80180839183A283B3
:100AE000B38328960FB6F894DEBF0FBECDBFDF915B
:100AF000CF911F910F91FF90EF90BF90AF909F907B
:100B00008F900895FC0160A171A182A193A16F3F14
:100B1000F9EC7F07FAE98F07FBE39F0749F00E9492
:100B2000DC2720E030E048EC52E40E94412704C07A
:100B300060E074E284E799E40895FC0160A971A97A
:100B400082A993A96F3FF9EC7F07FAE98F07FBE3CE
:100B50009F0749F00E94DA2720E030E048EC52E499
:100B60000E94412704C060E070E08AE794E40895A1
:100B7000FC0160A571A582A593A56F3FF9EC7F07E5
:100B8000FAE98F07FBE39F0749F00E94DA2720E08C
:100B900030E048EC52E40E94412704C060E070E07D
:100BA00080E89FEB0895CF92DF92EF92FF920E9430
:100BB000B8056B017C0120E030E040E85FEB0E946B
:100BC0003D27882349F026E53EE04DEE5FE3C7016F
:100BD000B6010E94E42804C060E070E080E89FEB6A
:100BE000FF90EF90DF90CF90089540E056E960E0ED
:100BF00070E088EC92E00E94A21D61ED70E088EC4C
:100C000092E00E94F71E8DE192E00E9411046DEEC9
:100C100070E088EC92E00E94F71E8DE192E00E9465
:100C20004104882319F06BE071E002C069E271E0D1
:100C300088EC92E00E94F71E67E08DE192E00E944E
:100C4000EE028AE08093040264E08DE192E00E946B
:100C5000F40260E08DE192E00E94FF0260E08DE12D
:100C600092E00E940A0361E08DE192E00C9415038A
:100C70002F923F924F925F926F927F928F929F92AC
:100C8000AF92BF92CF92DF92EF92FF920F931F939A
:100C9000CF93DF93CDB7DEB7C659D1090FB6F8941D
:100CA000DEBF0FBECDBF6C966CAF7DAF8EAF9FAF7A
:100CB0006C97AC962CAF3DAF4EAF5FAFAC97E09664
:100CC000ECAEFDAE0EAF1FAFE09720910201309168
:100CD000030140910401509105012AA33BA34CA3B9
:100CE0005DA38091060190910701A0910801B09148
:100CF00009018A8F9B8FAC8FBD8F20910A013091A3
:100D00000B0140910C0150910D01298B3A8B4B8BBB
:100D10005C8B80910E0190910F01A0911001B09118
:100D2000110189879A87AB87BC876C962CAD3DAD46
:100D30004EAD5FAD6C97CA01B9010E94E4282B014A
:100D40003C01AC962CAD3DAD4EAD5FADAC97CA014C
:100D5000B9010E94E4289B01AC01C301B2010E94C9
:100D600060262B013C01A8019701C801B7010E9430
:100D7000E4289B01AC01C301B2010E9460260E94DD
:100D80004B292B013C0120E030E0A9010E943D27C6
:100D9000882311F40C94D315CD54DF4F2881398169
:100DA0004A815B81C35BD040CA01B9010E94E4283B
:100DB0006D837E838F839887C954DF4F2881398163
:100DC0004A815B81C75BD040CA01B9010E94E42817
:100DD0009B01AC016D817E818F8198850E94602688
:100DE0006D837E838F839887C554DF4F2881398137
:100DF0004A815B81CB5BD040CA01B9010E94E428E3
:100E00009B01AC016D817E818F8198850E94602657
:100E10000E944B296D837E838F83988720E030E08A
:100E2000A9010E943D27882311F40C94D3152AA10F
:100E30003BA14CA15DA1CA01B9010E9460266DAF22
:100E400026967FAF269727968FAF279728969FAF36
:100E50002897CB012796AFAD27972896BFAD289747
:100E6000C458DF4F88839983AA83BB83CC57D04073
:100E70002A8D3B8D4C8D5D8DCA01B9010E94602683
:100E8000E7966FAFE797E8967FAFE897E9968FAF61
:100E9000E997EA969FAFEA9729893A894B895C8955
:100EA000CA01B9010E94602622966FAF22972D9643
:100EB0007FAF2D972E968FAF2E972F969FAF2F97A0
:100EC000CB012E96AFAD2E972F96BFAD2F97C05862
:100ED000DF4F88839983AA83BB83C058D04029857C
:100EE0003A854B855C85CA01B9010E946026CC57C2
:100EF000DF4F6883C458D040CB57DF4F7883C55845
:100F0000D040CA57DF4F8883C658D040C957DF4FFB
:100F10009883C758D0402AA13BA14CA15DA1CA012A
:100F2000B9010E94E428E1966FAFE197E2967FAFA6
:100F3000E2978C012A8D3B8D4C8D5D8D6AA17BA142
:100F40008CA19DA10E94E42863966FAF639764967D
:100F50007FAF649765968FAF659766969FAF6697EC
:100F600029893A894B895C896AA17BA18CA19DA1C1
:100F70000E94E428C857DF4F6883C858D040C7573D
:100F8000DF4F7883C958D040C657DF4F8883CA588F
:100F9000D040C557DF4F9883CB58D0402A8D3B8D2A
:100FA0004C8D5D8DCA01B9010E94E4286CAB7CAF09
:100FB0008E8B60969FAF609729853A854B855C85BF
:100FC0006A8D7B8D8C8D9D8D0E94E42829966FAF54
:100FD000299761967FAF619789A767969FAF6797BB
:100FE00029893A894B895C89CA01B9010E94E428A0
:100FF0006E8F79AB8AAB9BAB29853A854B855C8537
:10100000CA01B9010E94E42868AF68967FAF68976B
:10101000A0968FAFA097A4969FAFA497A30192012B
:1010200060E070E080E89FE30E944127E3966FAFA5
:10103000E397E4967FAFE497E5968FAFE597E69662
:101040009FAFE6972D813E814F81588560E070E02B
:1010500080E89FE30E9441277B01982E892E762FFE
:10106000C401272F3F2D492F582FCD54DF4F6881C2
:1010700079818A819B81C35BD0400E94E4286EA362
:101080007FA38D8798A7C4012E2D3F2D492F582F60
:10109000C954DF4F688179818A819B81C75BD040C9
:1010A0000E94E428362E272E8D8B9D83C4012E2D81
:1010B0003F2D492F582FC554DF4F688179818A8190
:1010C0009B81CB5BD0400E94E4287B012C017EA158
:1010D0006FA19D8588A5272F362F492F582F6DADDD
:1010E00026967FAD269727968FAD279728969FAD9A
:1010F00028970E94E4283B014C01CB01D401CD5636
:10110000DF4F88839983AA83BB83C359D040B10141
:101110009D898D81272F362F492F582F6DAD26960B
:101120007FAD269727968FAD279728969FAD289756
:101130000E94E42862966FAF6297EB967FAFEB97C1
:10114000A5968FAFA597EC969FAFEC972E2D3F2DD0
:10115000442D552D6DAD26967FAD269727968FADE4
:10116000279728969FAD28970E94E42869836D965B
:101170007FAF6D976E968FAF6E976F969FAF6F979D
:101180007EA16FA19D8588A5272F362F492F582F27
:10119000E796BFADE797E896AFADE897E996FFAD64
:1011A000E997EA96EFADEA976B2F7A2F8F2F9E2F54
:1011B0000E94E428C457DF4F6883CC58D040C357FF
:1011C000DF4F7883CD58D040C257DF4F8883CE5849
:1011D000D040C157DF4F9883CF58D040E1967FADC4
:1011E000E197E2966FADE297272F362F402F512FD0
:1011F000BEA1AFA1FD85E8A56B2F7A2F8F2F9E2F63
:101200000E94E4286DA77EA78FA798AB29853A8511
:101210004B855C856296BFAD6297EB96AFADEB9761
:10122000A596FFADA597EC96EFADEC976B2F7A2FB7
:101230008F2F9E2F0E94E4289B01AC016DA57EA5F7
:101240008FA598A90E945F266DA77EA78FA798AB50
:1012500029893A894B895C89B9816D96AFAD6D97C3
:101260006E96FFAD6E976F96EFAD6F976B2F7A2FDF
:101270008F2F9E2F0E94E4289B01AC016DA57EA5B7
:101280008FA598A90E9460266DA77EA78FA798AB0F
:101290007CA96CAD9E8960968FAD6097272F362F05
:1012A000492F582FBEA1AFA1FD85E8A56B2F7A2F3E
:1012B0008F2F9E2F0E94E4289B01AC016DA57EA577
:1012C0008FA598A90E9460266DA77EA78FA798ABCF
:1012D000B1019D898D81272F362F492F582FE796F1
:1012E000BFADE797E896AFADE897E996FFADE99710
:1012F000EA96EFADEA976B2F7A2F8F2F9E2F0E94E1
:10130000E42829893A894B895C890E94E4289B0159
:10131000AC016DA57EA58FA598A90E9460266DA73A
:101320007EA78FA798AB2E2D3F2D442D552DE796E8
:10133000BFADE797E896AFADE897E996FFADE997BF
:10134000EA96EFADEA976B2F7A2F8F2F9E2F0E9490
:10135000E42829853A854B855C850E94E4289B0119
:10136000AC016DA57EA58FA598A90E9460266DA7EA
:101370007EA78FA798AB7E8D69A99AA98BA9272FE5
:10138000362F492F582FBEA1AFA1FD85E8A56B2FA1
:101390007A2F8F2F9E2F0E94E4289B01AC016DA510
:1013A0007EA58FA598A90E945F266DA77EA78FA70F
:1013B00098AB78AD68966FAD6897A0969FADA097F3
:1013C000A4968FADA497272F362F492F582FBEA153
:1013D000AFA1FD85E8A56B2F7A2F8F2F9E2F0E943E
:1013E000E4289B01AC016DA57EA58FA598A90E945C
:1013F0005F266DA7C057DF4F7883C059D040CF56C6
:10140000DF4F8883C159D040CE56DF4F9883C259F1
:10141000D04029853A854B855C85B301C4010E9483
:10142000E4283B014C01E1967FADE197E2966FAD78
:10143000E297272F362F402F512FD101FD89ED81C3
:101440006B2F7A2F8F2F9E2F0E94E4289B01AC01D7
:10145000C401B3010E9460263B014C012A8D3B8DE3
:101460004C8D5D8DB9816D96AFAD6D976E96FFAD6C
:101470006E976F96EFAD6F976B2F7A2F8F2F9E2FF2
:101480000E94E4289B01AC01C401B3010E945F26C5
:101490003B014C0129893A894B895C89C457DF4F4C
:1014A000B881CC58D040C357DF4FA881CD58D04029
:1014B000C257DF4FF881CE58D040C157DF4FE88187
:1014C000CF58D0406B2F7A2F8F2F9E2F0E94E42869
:1014D0009B01AC01C401B3010E9460263B014C0199
:1014E0007CA96CAD9E8960968FAD6097272F362FB3
:1014F000492F582FD101FD89ED816B2F7A2F8F2F26
:101500009E2F0E94E4289B01AC01C401B3010E94FC
:101510005F263B014C017E8D69A99AA98BA9272FD3
:10152000362F492F582FD101FD89ED816B2F7A2F4E
:101530008F2F9E2F0E94E4289B01AC01C401B301B0
:101540000E9460263B014C012E2D3F2D442D552D30
:1015500022966FAD22972D967FAD2D972E968FAD4B
:101560002E972F969FAD2F970E94E42829853A85C4
:101570004B855C850E94E4289B01AC01C401B3014A
:101580000E9460263B014C0178AD68966FAD68976C
:10159000A0969FADA097A4968FADA497272F362F26
:1015A000492F582FD101FD89ED816B2F7A2F8F2F75
:1015B0009E2F0E94E4289B01AC01C401B3010E944C
:1015C0005F2669836D967FAF6D976E968FAF6E972E
:1015D0006F969FAF6F977DA5C057DF4F6881C05949
:1015E000D040CF56DF4F9881C159D040CE56DF4F03
:1015F0008881C259D040272F362F492F582FDB0121
:10160000FC016B2F7A2F8F2F9E2F0E94E4283B0125
:101610004C0179816D966FAD6D976E969FAD6E970B
:101620006F968FAD6F97272F362F492F582FDB01DD
:10163000FC016B2F7A2F8F2F9E2F0E94E4289B0195
:10164000AC01C401B3010E9460260E944B2969834A
:101650007A838B839C83CD56DF4F688179818A8121
:101660009B81C359D040905829893A894B895C891C
:101670000E94E4283B014C012A8D3B8D4C8D5D8DF1
:101680006296BFAD6297EB96AFADEB97A596FFADB7
:10169000A597EC96EFADEC976B2F7A2F8F2F9E2F9F
:1016A0000E94E4289B01AC01C401B3010E946026A2
:1016B0003B014C01E1967FADE197E2966FADE29779
:1016C000272F362F402F512F6E2D7F2D842D952DB6
:1016D0000E94E4289B01AC01C401B3010E94602672
:1016E0003B014C0129853A854B855C85C457DF4F0A
:1016F000B881CC58D040C357DF4FA881CD58D040D7
:10170000C257DF4FF881CE58D040C157DF4FE88134
:10171000CF58D0406B2F7A2F8F2F9E2F0E94E42816
:101720009B01AC01C401B3010E9460263B014C0146
:101730007CA96CAD9E8960968FAD6097272F362F60
:10174000492F582F6E2D7F2D842D952D0E94E42832
:101750009B01AC01C401B3010E945F263B014C0117
:10176000B1019D898D81272F362F492F582F229621
:101770006FAD22972D967FAD2D972E968FAD2E971C
:101780002F969FAD2F970E94E42829853A854B8597
:101790005C850E94E4289B01AC01C401B3010E9456
:1017A00060263B014C017E8D69A99AA98BA9272F40
:1017B000362F492F582F6E2D7F2D842D952D0E9469
:1017C000E4289B01AC01C401B3010E945F263B01E8
:1017D0004C0178AD68966FAD6897A0969FADA097C5
:1017E000A4968FADA497272F362F492F582F6E2DF3
:1017F0007F2D842D952D0E94E4289B01AC01C4010E
:10180000B3010E946026162F072F782E692EB8018B
:10181000C301272F362F492F582FD801F3016B2FE3
:101820007A2F8F2F9E2F0E94602662966FAF62974D
:10183000E1967FAFE197E2968FAFE297EB969FAF8D
:10184000EB9729967FAD299761966FAD619799A522
:1018500067968FAD6797272F362F492F582FDB01BB
:10186000FC016B2F7A2F8F2F9E2F0E946026A89647
:101870006CAF7DAF8EAF9FAFA89729893A894B890E
:101880005C896DAD26967FAD269727968FAD2797FD
:1018900028969FAD28970E94E4289B01AC01A8964A
:1018A0006CAD7DAD8EAD9FADA8970E945F26219651
:1018B0006CAF7DAF8EAF9FAF2197E3967FADE3977F
:1018C000E4966FADE497E5969FADE597E6968FAD0C
:1018D000E697272F362F492F582F6C966CAD7DAD8C
:1018E0008EAD9FAD6C970E94E4289B01AC012196C0
:1018F0006CAD7DAD8EAD9FAD21970E945F266DAF23
:1019000026967FAF269727968FAF279728969FAF6B
:10191000289763967FAD639764966FAD64976596DD
:101920009FAD659766968FAD6697272F362F492F07
:10193000582FDB01FC016B2F7A2F8F2F9E2F0E94D7
:1019400060266C966CAF7DAF8EAF9FAF6C9729858C
:101950003A854B855C8522966FAD22972D967FAD9B
:101960002D972E968FAD2E972F969FAD2F970E9475
:10197000E4289B01AC016C966CAD7DAD8EAD9FAD46
:101980006C970E94602625966CAF7DAF8EAF9FAF9F
:101990002597E3967FADE397E4966FADE497E596E0
:1019A0009FADE597E6968FADE697272F362F492F07
:1019B000582FAC966CAD7DAD8EAD9FADAC970E94AF
:1019C000E4289B01AC0125966CAD7DAD8EAD9FAD3D
:1019D00025970E945F2622966FAF22972D967FAFA4
:1019E0002D972E968FAF2E972F969FAF2F972989E1
:1019F0003A894B895C89D801F3016B2F7A2F8F2F9D
:101A00009E2F0E94E42869966FAF6997A9967FAFD1
:101A1000A997A5968FAFA597EC969FAFEC977E8D73
:101A200069A99AA98BA9272F362F492F582F60E033
:101A300070E080E09FE30E945F26B8AD6896AFAD8E
:101A40006897A096FFADA097A496EFADA4972B2F13
:101A50003A2F4F2F5E2F0E945F269B01AC016981B8
:101A60007A818B819C810E94E42868AF79AF8AAF2C
:101A70009BAFC857DF4F7881C858D040C757DF4F5A
:101A80006881C958D040C657DF4F9881CA58D040A6
:101A9000C557DF4F8881CB58D040272F362F492F8D
:101AA000582F2996BFAD29976196AFAD6197F9A5DB
:101AB0006796EFAD67976B2F7A2F8F2F9E2F0E941F
:101AC0005F269B01AC01D801F3016B2F7A2F8F2F7A
:101AD0009E2F0E94E4289B01AC0168AD79AD8AADD0
:101AE0009BAD0E946026BEA1AFA1FD85E8A52B2F6E
:101AF0003A2F4F2F5E2F0E945F266EA37FA38D8704
:101B000098A729813A814B815C815058A3962CAFCC
:101B10003DAF4EAF5FAFA3972A8D3B8D4C8D5D8D52
:101B2000D801F3016B2F7A2F8F2F9E2F0E94E4286C
:101B3000A4966FAFA4976D967FAF6D976E968FAF9B
:101B40006E976F969FAF6F9729893A894B895C8909
:101B50006A8D7B8D8C8D9D8D0E94E42868AF79AF56
:101B60008AAF9BAF29853A854B855C856AA17BA1AD
:101B70008CA19DA10E94E4289B01AC0168AD79ADC8
:101B80008AAD9BAD0E945F269B01AC0169817A8181
:101B90008B819C810E94E42868AF79AF8AAF9BAFAC
:101BA00029853A854B855C8569897A898B899C89E9
:101BB0000E94E4289B01AC016396BFAD63976496D5
:101BC000AFAD64976596FFAD65976696EFAD669786
:101BD0006B2F7A2F8F2F9E2F0E9460269B01AC01C6
:101BE000D801F3016B2F7A2F8F2F9E2F0E94E428AC
:101BF0009B01AC0168AD79AD8AAD9BAD0E946026BA
:101C0000D101FD89ED812B2F3A2F4F2F5E2F0E949E
:101C10005F266D8B7D834C0129893A894B895C89CC
:101C200069817A818B819C810E94E42863966FAFE1
:101C3000639764967FAF649765968FAF6597669656
:101C40009FAF669729967FAD299761966FAD619793
:101C500099A567968FAD6797272F362F492F582F55
:101C6000C857DF4FB881C858D040C757DF4FA88149
:101C7000C958D040C657DF4FF881CA58D040C55721
:101C8000DF4FE881CB58D0406B2F7A2F8F2F9E2FBC
:101C90000E9460269B01AC0169817A818B819C81C5
:101CA0000E94E4282C966CAF7DAF8EAF9FAF2C972F
:101CB0007CA96CAD9E8960968FAD6097272F362FDB
:101CC000492F582F60E070E080E09FE30E945F267C
:101CD000BE8DA9A9FAA9EBA92B2F3A2F4F2F5E2F62
:101CE0000E945F269B01AC01D801F3016B2F7A2F74
:101CF0008F2F9E2F0E94E4289B01AC012C966CAD87
:101D00007DAD8EAD9FAD2C970E9460262E2D3F2D70
:101D1000442D552D0E945F2629966FAF2997619615
:101D20007FAF61971C01C058DF4F688179818A813C
:101D30009B81C058D0409058BDAD2696AFAD269738
:101D40002796FFAD27972896EFAD28972B2F3A2F90
:101D50004F2F5E2F0E94E42869A77AA78BA79CA724
:101D600022967FAD22972D966FAD2D972E969FAD23
:101D70002E972F968FAD2F97272F362F492F582F1D
:101D8000E796BFADE797E896AFADE897E996FFAD68
:101D9000E997EA96EFADEA976B2F7A2F8F2F9E2F58
:101DA0000E94E4289B01AC0169A57AA58BA59CA59E
:101DB0000E94602669A77AA78BA79CA77EA16FA126
:101DC0009D8588A5272F362F492F582F6996BFAD9F
:101DD0006997A996AFADA997A596FFADA597EC9683
:101DE000EFADEC976B2F7A2F8F2F9E2F0E94E42858
:101DF0009B01AC0169A57AA58BA59CA50E945F26D5
:101E000069A77AA78BA79CA729853A854B855C850E
:101E1000A3966CAD7DAD8EAD9FADA3970E94E428D7
:101E2000A496BFADA4976D96AFAD6D976E96FFADBE
:101E30006E976F96EFAD6F972B2F3A2F4F2F5E2F28
:101E40000E946026BD89AD812B2F3A2F482D592D38
:101E50000E94E4289B01AC0169A57AA58BA59CA5ED
:101E60000E94602669A77AA78BA79CA729967FADB9
:101E7000299761966FAD6197272F362F422D532DED
:101E80006396BFAD63976496AFAD64976596FFADFB
:101E900065976696EFAD66976B2F7A2F8F2F9E2FE3
:101EA0000E94E4289B01AC0169A57AA58BA59CA59D
:101EB0000E94602669A767967FAF679788AF68968C
:101EC0009FAF68977CA96CAD9E8960968FAD609737
:101ED000272F362F492F582FDB01FC016B2F7A2F2C
:101EE0008F2F9E2F0E9460269B01AC0160E070E066
:101EF00080E89FE30E945F266CAB7DAB8EAB9FAB0F
:101F00007E8D69A99AA98BA9272F362F492F582F83
:101F1000DB01FC016B2F7A2F8F2F9E2F0E946026F2
:101F20009B01AC016CA97DA98EA99FA90E945F2687
:101F30006E8F7F8F88A399A3E3967FADE397E49696
:101F40006FADE497E5969FADE597E6968FADE69782
:101F5000272F362F492F582FE0966CAD7DAD8EADD3
:101F60009FADE0970E94E4289B01AC016E8D7F8DB0
:101F700088A199A10E945F266CAF7E8B60968FAF7F
:101F80006097AD969FAFAD9729853A854B855C8567
:101F9000D801F3016B2F7A2F8F2F9E2F0E94E428F8
:101FA000E3966FAFE397E4967FAFE497E5968FAF44
:101FB000E597E6969FAFE6972AA13BA14CA15DA1CC
:101FC000D801F3016B2F7A2F8F2F9E2F0E94E428C8
:101FD000162F072F7C017DAD26966FAD269727968D
:101FE0009FAD279728968FAD2897272F362F492FFB
:101FF000582FCC57DF4FB881C458D040CB57DF4F54
:10200000A881C558D040CA57DF4FF881C658D04084
:10201000C957DF4FE881C758D0406B2F7A2F8F2FD9
:102020009E2F0E94E4282B013C0122967FAD22972F
:102030002D966FAD2D972E969FAD2E972F968FAD27
:102040002F97272F362F492F582FC458DF4F6881DD
:1020500079818A819B81CC57D0400E94E4289B01E2
:10206000AC01C301B2010E9460262B013C0120E0BB
:1020700030E040E850E46A8D7B8D8C8D9D8D0E9410
:10208000E428BCADAE896096FFAD6097AD96EFAD2C
:10209000AD972B2F3A2F4F2F5E2F0E94E4289B01E4
:1020A000AC01C301B2010E945F262B013C017EA15D
:1020B0006FA19D8588A5272F362F492F582FE3968E
:1020C000BFADE397E496AFADE497E596FFADE59736
:1020D000E696EFADE6976B2F7A2F8F2F9E2F0E94FB
:1020E000E4289B01AC01C301B2010E9460262B01D0
:1020F0003C01B801272F362F4E2D5F2D6396BFADC3
:1021000063976496AFAD64976596FFAD65976696E5
:10211000EFAD66976B2F7A2F8F2F9E2F0E94602630
:10212000BD89AD812B2F3A2F482D592D0E94E428CF
:102130009B01AC01C301B2010E9460266E8F7F8FAC
:1021400088A399A329853A854B855C8569817A8125
:102150008B819C810E94E4282B013C012A8D3B8DC0
:102160004C8D5D8D6296BFAD6297E196AFADE19704
:10217000E296FFADE297EB96EFADEB976B2F7A2FE0
:102180008F2F9E2F0E94E4289B01AC01C301B20156
:102190000E945F262996BFAD29976196AFAD6197E2
:1021A0002B2F3A2F422D532D0E94E4289B01AC0186
:1021B0006E8D7F8D88A199A10E9460266E8F79AB6C
:1021C0008AAB9BAB29813A814B815C81CA01B90101
:1021D0000E9460269B01AC0150582CAB3DAB4EAB2E
:1021E0005FAB2A8D3B8D4C8D5D8D69817A818B81B2
:1021F0009C810E94E42863966FAF639764967FAFDB
:10220000649765968FAF659766969FAF6697C4583B
:10221000DF4F688179818A819B81CC57D04090586B
:10222000BDAD2696AFAD26972796FFAD279728968A
:10223000EFAD28972B2F3A2F4F2F5E2F0E94E428C7
:102240002B013C0122967FAD22972D966FAD2D97E5
:102250002E969FAD2E972F968FAD2F97272F362F27
:10226000492F582FCC57DF4FB881C458D040CB5797
:10227000DF4FA881C558D040CA57DF4FF881C658F4
:10228000D040C957DF4FE881C758D0406B2F7A2F15
:102290008F2F9E2F0E94E4289B01AC01C301B20145
:1022A0000E9460262B013C0120E030E040E850E431
:1022B00069897A898B899C890E94E428BCADAE89A2
:1022C0006096FFAD6097AD96EFADAD972B2F3A2F8F
:1022D0004F2F5E2F0E94E4289B01AC01C301B20185
:1022E0000E945F262B013C0129893A894B895C8930
:1022F0006CA97DA98EA99FA90E94E428D8012B2F43
:102300003A2F4E2D5F2D0E945F26BEA1AFA1FD8505
:10231000E8A52B2F3A2F4F2F5E2F0E94E4289B0118
:10232000AC01C301B2010E9460262B013C01E3967F
:102330007FADE397E4966FADE497E5969FADE597A3
:10234000E6968FADE697272F362F492F582F6396A5
:10235000BFAD63976496AFAD64976596FFAD659723
:102360006696EFAD66976B2F7A2F8F2F9E2F0E9468
:102370006026BD89AD812B2F3A2F482D592D0E9403
:10238000E4289B01AC01C301B2010E9460262B012D
:102390003C012AA13BA14CA15DA169817A818B817D
:1023A0009C810E94E42869837A838B839C8329899A
:1023B0003A894B895C896296BFAD6297E196AFAD71
:1023C000E197E296FFADE297EB96EFADEB976B2FBF
:1023D0007A2F8F2F9E2F0E94E4289B01AC016981E8
:1023E0007A818B819C810E945F262996BFAD2997B7
:1023F0006196AFAD61972B2F3A2F422D532D0E943E
:10240000E4289B01AC01C301B2010E946026762E34
:10241000672E582E492E7DAD26966FAD26972796AE
:102420009FAD279728968FAD2897272F362F492FB6
:10243000582FE796BFADE797E896AFADE897E996D6
:10244000FFADE997EA96EFADEA976B2F7A2F8F2FC2
:102450009E2F0E94E42869837A838B839C83229633
:102460007FAD22972D966FAD2D972E969FAD2E970F
:102470002F968FAD2F97272F362F492F582FC058C3
:10248000DF4F688179818A819B81C058D0400E944A
:10249000E4289B01AC0169817A818B819C810E9437
:1024A000602669837A838B839C8329853A854B8553
:1024B0005C856CA97DA98EA99FA90E94E428A49699
:1024C000BFADA4976D96AFAD6D976E96FFAD6E974D
:1024D0006F96EFAD6F972B2F3A2F4F2F5E2F0E94E5
:1024E0006026BEA1AFA1FD85E8A52B2F3A2F4F2F67
:1024F0005E2F0E94E4289B01AC0169817A818B8167
:102500009C810E94602669837A838B839C832AA1A5
:102510003BA14CA15DA1A3966CAD7DAD8EAD9FADF1
:10252000A3970E94E4286996BFAD6997A996AFADBD
:10253000A997A596FFADA597EC96EFADEC972B2F3D
:102540003A2F4F2F5E2F0E946026BD89AD812B2F21
:102550003A2F482D592D0E94E4289B01AC01698136
:102560007A818B819C810E94602669837A838B8328
:102570009C8329967FAD299761966FAD6197272F30
:10258000362F422D532D6396BFAD63976496AFAD42
:1025900064976596FFAD65976696EFAD66976B2F6E
:1025A0007A2F8F2F9E2F0E94E4289B01AC01698116
:1025B0007A818B819C810E9460266D8B7D838EA3A6
:1025C0009FA379A567966FAD679798AD68968FAD15
:1025D0006897272F362F492F582FDB01FC016B2FCF
:1025E0007A2F8F2F9E2F0E94E42869837A838B8312
:1025F0009C837E8D69A99AA98BA9272F362F492FF5
:10260000582FDB01FC016B2F7A2F8F2F9E2F0E94FA
:10261000E4289B01AC0169817A818B819C810E94B5
:10262000602669837A838B839C83B301C201272F41
:10263000362F492F582FD301F2016B2F7A2F8F2F6E
:102640009E2F0E94E4289B01AC0169817A818B81D5
:102650009C810E94602669837A838B839C837D8919
:102660006D819EA18FA1272F362F492F582FDB0177
:10267000FC016B2F7A2F8F2F9E2F0E94E4289B0145
:10268000AC0169817A818B819C810E9460260E94C5
:102690004B299B01AC0160E070E080E89FE30E9461
:1026A00041271B018C018091F4019091F501A091CB
:1026B000F601B091F70189839A83AB83BC836A8D5D
:1026C0007B8D8C8D9D8D9058A60195010E94E428EC
:1026D0006D877E878F87988BC555DF4F288139811D
:1026E0004A815B81CB5AD04069897A898B899C89E0
:1026F0000E94E4289B01AC016D857E858F859889B9
:102700000E945F266D877E878F87988BC155DF4F2C
:10271000288139814A815B81CF5AD04069857A8589
:102720008B859C850E94E4289B01AC016D857E858C
:102730008F8598890E945F2620E030E040E05FE3CB
:102740000E94E4286D877E878F87988B222D332DFA
:10275000402F512FB9A56796AFAD6797F8AD689632
:10276000EFAD68976B2F7A2F8F2F9E2F0E94E42852
:102770002DE037EC4AE15FE30E94E4289B01AC01C5
:102780006D857E858F8598890E945F2629813A8193
:102790004B815C810E94E4289B01AC016AA17BA172
:1027A0008CA19DA10E9460266D8778A78CAB9CAF01
:1027B000A60195016AA17BA18CA19DA10E94E4289C
:1027C0006E8B7F8B888F998FC155DF4F2881398120
:1027D0004A815B81CF5AD04069897A898B899C89EB
:1027E0000E94E4289B01AC016E897F89888D998DB8
:1027F0000E9460266E8B7F8B888F998FC555DF4F27
:10280000288139814A815B81CB5AD04069857A859C
:102810008B859C850E94E4289B01AC016E897F8991
:10282000888D998D0E945F2620E030E040E05FE3D4
:102830000E94E4286E8B7F8B888F998F222D332DF9
:10284000402F512FBE8DA9A9FAA9EBA96B2F7A2F82
:102850008F2F9E2F0E94E4282DE037EC4AE15FE3A2
:102860000E94E4289B01AC016E897F89888D998D37
:102870000E945F2629813A814B815C810E94E42875
:102880009B01AC016A8D7B8D8C8D9D8D0E94602695
:102890006E8F79AB8AAB9BABC555DF4F28813981F1
:1028A0004A815B81CB5AD0406AA17BA18CA19DA1BA
:1028B0000E94E4286E8B7F8B888F998FC155DF4FE4
:1028C000288139814A815B81CF5AD0406A8D7B8DC6
:1028D0008C8D9D8D0E94E4289B01AC016E897F89BF
:1028E000888D998D0E945F266E8B7F8B888F998F44
:1028F000A601950169857A858B859C850E94E428CF
:102900009B01AC016E897F89888D998D0E9460261C
:1029100020E030E040E05FE30E94E4286E8B7F8B94
:10292000888F998F222D332D402F512FD301F20103
:102930006B2F7A2F8F2F9E2F0E94E4282DE037ECEB
:102940004AE15FE30E94E4289B01AC016E897F8924
:10295000888D998D0E945F2629813A814B815C8107
:102960000E94E4289B01AC0169897A898B899C8942
:102970000E9460262B013C01C155DF4F288139811F
:102980004A815B81CF5AD0406AA17BA18CA19DA1D5
:102990000E94E4286AA37BA38CA39DA3C555DF4FA7
:1029A000288139814A815B81CB5AD0406A8D7B8DE9
:1029B0008C8D9D8D0E94E4289B01AC016AA17BA1B6
:1029C0008CA19DA10E9460266A8F7B8F8C8F9D8F2A
:1029D000A601950169897A898B899C890E94E428DE
:1029E0009B01AC016A8D7B8D8C8D9D8D0E945F2635
:1029F00020E030E040E05FE30E94E4284B015C010E
:102A0000222D332D402F512FBD89AD81FEA1EFA185
:102A10006B2F7A2F8F2F9E2F0E94E4282DE037EC0A
:102A20004AE15FE30E94E4289B01AC01C501B401C7
:102A30000E945F2629813A814B815C810E94E428B3
:102A40009B01AC0169857A858B859C850E946026F7
:102A50004B015C017D8568A59CA98CAD272F362F85
:102A6000492F582FDB01FC016B2F7A2F8F2F9E2FC0
:102A70000E94E4286B017C017E8D69A99AA98BA92B
:102A8000272F362F492F582FDB01FC016B2F7A2F70
:102A90008F2F9E2F0E94E4289B01AC01C701B60135
:102AA0000E9460266B017C01242D352D462D572D6B
:102AB000642D752D862D972D0E94E4289B01AC0175
:102AC000C701B6010E9460266B017C01282D392DBB
:102AD0004A2D5B2D682D792D8A2D9B2D0E94E4288F
:102AE0009B01AC01C701B6010E9460260E944B29E0
:102AF0009B01AC0160E070E080E89FE30E94412709
:102B00006B017C01762F272F3D2D4E2D5F2DBD852E
:102B1000A8A5FCA9ECAD6B2F7A2F8F2F9E2F0E94BA
:102B2000E428609302017093030180930401909361
:102B300005012C2D3D2D4E2D5F2DBE8DA9A9FAA985
:102B4000EBA96B2F7A2F8F2F9E2F0E94E428609382
:102B500006017093070180930801909309012C2DC1
:102B60003D2D4E2D5F2D642D752D862D972D0E94A8
:102B7000E42860930A0170930B0180930C019093F9
:102B80000D012C2D3D2D4E2D5F2D682D792D8A2D7B
:102B90009B2D0E94E42860930E0170930F01809397
:102BA000100190931101CA56DF4F0FB6F894DEBFA3
:102BB0000FBECDBFDF91CF911F910F91FF90EF908E
:102BC000DF90CF90BF90AF909F908F907F906F904D
:102BD0005F904F903F902F9008952F923F924F9289
:102BE0005F926F927F928F929F92AF92BF92CF929D
:102BF000DF92EF92FF920F931F93CF93DF93CDB7A6
:102C0000DEB7E4970FB6F894DEBF0FBECDBF9E01CE
:102C1000275F3F4FAE014F5F5F4FBE016B5F7F4F3E
:102C20008CE492E00E9409058CE492E00E94820507
:102C30006DA37EA38FA398A78CE492E00E949D05CC
:102C400069A77AA78BA79CA78CE492E00E94D30582
:102C50006DA77EA78FA798AB8DE192E00E941C0321
:102C6000882309F466C180910502909106020196BD
:102C7000909306028093050227E132E049E152E099
:102C80006BE172E08DE192E00E948B0360911B0288
:102C900070911C02882777FD8095982F0E94DC2771
:102CA0009B01AC010E94602620E030E040E058E348
:102CB0000E94E4286093EC017093ED018093EE0193
:102CC0009093EF016091190270911A02882777FDA5
:102CD0008095982F0E94DC279B01AC010E94602602
:102CE00020E030E040E058E30E94E4286093E801EF
:102CF0007093E9018093EA019093EB0160911702D0
:102D000070911802882777FD8095982F0E94DC2704
:102D10009B01AC010E94602620E030E040E058E3D7
:102D20000E94E4286093E4017093E5018093E6013A
:102D30009093E70121E132E043E152E065E172E086
:102D40008DE192E00E94C503609115027091160218
:102D5000882777FD8095982F0E94DC2720E030E0BF
:102D60004AE753E40E94E42820E030E040E058E3E2
:102D70000E94E4286093E0017093E1018093E201F6
:102D80009093E3016091130270911402882777FDFC
:102D90008095982F0E94DC2720E030E04AE753E43A
:102DA0000E94E42820E030E040E058E30E94E4285C
:102DB0006093DC017093DD018093DE019093DF016D
:102DC0006091110270911202882777FD8095982FEB
:102DD0000E94DC2720E030E04AE753E40E94E42828
:102DE00020E030E040E058E30E94E4286093D801FE
:102DF0007093D9018093DA019093DB016091040212
:102E000088EE93E070E00E94B529809105029091D0
:102E100006026817790708F08CC02BE032E04DE01D
:102E200052E06FE072E08DE192E00E943703609122
:102E30000F0270911002882777FD8095982F0E94CD
:102E4000DC2720E030E040E251E40E94E42820E06A
:102E500030EA49E954E40E94E42820E030E040E808
:102E600059E30E94E42820E030E040E951E40E9468
:102E700060266093D4017093D5018093D60190931E
:102E8000D70160910D0270910E02882777FD809521
:102E9000982F0E94DC2720E030E040E251E40E94BD
:102EA000E42820E030EA49E954E40E94E42820E0E4
:102EB00030E040E859E30E94E42820E030E04CE8AC
:102EC00052E40E9460266093D0017093D1018093F8
:102ED000D2019093D30160910B0270910C0288276C
:102EE00077FD8095982F0E94DC2720E030E040E2BB
:102EF00051E40E94E42820E030EA49E954E40E94C9
:102F0000E42820E030E040E859E30E94E42820E093
:102F100030E047E853E40E9460266093CC01709350
:102F2000CD018093CE019093CF01109206021092B2
:102F300005020E94041C6B017C017093F1016093F7
:102F4000F0018091F2019091F301B601681B790BB9
:102F500080E090E00E94DA2720E034E244E759E480
:102F60000E9441276093F4017093F5018093F6016C
:102F70009093F701D092F301C092F2012BED3FE064
:102F800049E450E46091E0017091E1018091E20137
:102F90009091E3010E94E42820E030E044E353E410
:102FA0000E9441275B016C018091E4019091E50151
:102FB000A091E601B091E7018D879E87AF87B88B1E
:102FC0004090E8015090E9016090EA017090EB01B7
:102FD0008091EC019091ED01A091EE01B091EF0193
:102FE000898B9A8BAB8BBC8B8091CF018F93809117
:102FF000CE018F938091CD018F938091CC018F93DF
:103000008091D7018F938091D6018F938091D501C4
:103010008F938091D4018F938091D3018F9380916E
:10302000D2018F938091D1018F938091D0018F93A2
:103030002BED3FE049E450E46091D8017091D90153
:103040008091DA019091DB010E94E42820E030E0D9
:1030500044E353E40E9441279F938F937F936F93A0
:103060002BED3FE049E450E46091DC017091DD011B
:103070008091DE019091DF010E94E42820E030E0A1
:1030800044E353E40E9441279F938F937F936F9370
:10309000ED84FE840F851889A301920169897A89DC
:1030A0008B899C890E9438060E94F21B209109029C
:1030B00030910A02621B730B70930802609307023F
:1030C0000FB6F894DEBF0FBECDBF653F714008F468
:1030D00013C362E171E088EC92E00E94D81E20E008
:1030E00030E04AE754E46091EC017091ED01809189
:1030F000EE019091EF010E94E428AB01BC0122E0B7
:1031000030E088EC92E00E94772068E171E088EC82
:1031100092E00E94D81E20E030E04AE754E460913B
:10312000E8017091E9018091EA019091EB010E9420
:10313000E428AB01BC0122E030E088EC92E00E9480
:1031400077206FE171E088EC92E00E94D81E20E0C9
:1031500030E04AE754E46091E4017091E501809128
:10316000E6019091E7010E94E428AB01BC0122E056
:1031700030E088EC92E00E94772066E271E088EC13
:1031800092E00E940B1F6AE271E088EC92E00E94DC
:10319000D81E4091E0015091E1016091E2017091EF
:1031A000E30122E030E088EC92E00E94772060E3C7
:1031B00071E088EC92E00E94D81E4091DC015091B1
:1031C000DD016091DE017091DF0122E030E088ECEA
:1031D00092E00E94772067E371E088EC92E00E9421
:1031E000D81E4091D8015091D9016091DA017091B7
:1031F000DB0122E030E088EC92E00E9477206EE371
:1032000071E088EC92E00E940B1F65E471E088ECAD
:1032100092E00E94D81E6091D4017091D5018091F6
:10322000D6019091D7010E94A9274AE050E088EC8E
:1032300092E00E94C61F6BE471E088EC92E00E946D
:10324000D81E6091D0017091D1018091D2019091EE
:10325000D3010E94A9274AE050E088EC92E00E9446
:10326000C61F62E571E088EC92E00E94D81E609172
:10327000CC017091CD018091CE019091CF010E943F
:10328000A9274AE050E088EC92E00E94C61F69E559
:1032900071E088EC92E00E940B1F6DE571E088EC14
:1032A00092E00E94D81E409102015091030160916A
:1032B00004017091050122E030E088EC92E00E9468
:1032C000772063E671E088EC92E00E94D81E40917E
:1032D000060150910701609108017091090122E0F7
:1032E00030E088EC92E00E9477206AE671E088EC9A
:1032F00092E00E94D81E40910A0150910B0160910A
:103300000C0170910D0122E030E088EC92E00E9407
:10331000772061E771E088EC92E00E94D81E40912E
:103320000E0150910F01609110017091110122E086
:1033300030E088EC92E00E94792080910201909127
:103340000301A0910401B09105018D879E87AF878D
:10335000B88B9C01AD01BC01CD010E94E428698FAE
:103360007A8F8B8F9C8F8091060190910701A0919D
:103370000801B0910901898B9A8BAB8BBC8B9C01A6
:10338000AD01BC01CD010E94E428162F072F382E75
:10339000292E40900A0150900B0160900C01709012
:1033A0000D01A3019201C301B2010E94E4286D8FB7
:1033B0007E8F8F8F98A380900E0190900F01A09028
:1033C0001001B0901101A5019401C501B4010E9442
:1033D000E42869A37AA38BA39CA3B801C101272F7A
:1033E000362F492F582FB98DAA8DFB8DEC8D6B2F61
:1033F0007A2F8F2F9E2F0E946026BD8DAE8DFF8D60
:10340000E8A12B2F3A2F4F2F5E2F0E945F26B9A1E4
:10341000AAA1FBA1ECA12B2F3A2F4F2F5E2F0E94C8
:103420005F266B017C01A301920169897A898B89EE
:103430009C890E94E4286D8B7E8B8F8B988FA501D1
:1034400094016D857E858F8598890E94E4289B0173
:10345000AC016D897E898F89988D0E9460269B01C1
:10346000AC010E946026A70196010E94EA266D8B9E
:103470007E8B8F8B988FA501940169897A898B89BE
:103480009C890E94E4286B017C01A30192016D8557
:103490007E858F8598890E94E4289B01AC01C70135
:1034A000B6010E945F269B01AC010E9460260E942B
:1034B000C42669AB7AAB8BAB9CABB801C101272F9B
:1034C000362F492F582FB98DAA8DFB8DEC8D6B2F80
:1034D0007A2F8F2F9E2F0E945F26BD8DAE8DFF8D80
:1034E000E8A12B2F3A2F4F2F5E2F0E945F26B9A104
:1034F000AAA1FBA1ECA12B2F3A2F4F2F5E2F0E94E8
:1035000060266B017C0129893A894B895C896D852C
:103510007E858F8598890E94E4286D877E878F87B6
:10352000988BA5019401C301B2010E94E4289B017C
:10353000AC016D857E858F8598890E9460269B01F0
:10354000AC010E946026A70196010E94EA266B0149
:103550007C0169A97AA98BA99CA9905820EE3EE22A
:1035600045E652E40E94E428609300027093010251
:1035700080930202909303022DEA3BEF4DE252E466
:103580006D897E898F89988D0E94E4286093FC0163
:103590007093FD018093FE019093FF0120EE3EE2C7
:1035A00045E652E4C701B6010E94E4286093F801A1
:1035B0007093F9018093FA019093FB0168E771E041
:1035C00088EC92E00E94D81E4091FC015091FD01D0
:1035D0006091FE017091FF0122E030E088EC92E002
:1035E0000E9477206BE871E088EC92E00E94D81E80
:1035F0004091000250910102609102027091030219
:1036000022E030E088EC92E00E9477206BE871E0E5
:1036100088EC92E00E94D81E4091F8015091F90187
:103620006091FA017091FB0122E030E088EC92E0B9
:103630000E9479206EE871E088EC92E00E94D81E2A
:103640002091F4013091F5014091F6015091F7017C
:1036500060E070E080E89FE30E944127AB01BC017D
:1036600022E030E088EC92E00E94772066E971E089
:1036700088EC92E00E940B1F4D815E816F817885FE
:1036800022E030E088EC92E00E94772049815A8164
:103690006B817C8122E030E088EC92E00E94772010
:1036A00022E030E04DA15EA16FA178A588EC92E008
:1036B0000E94772022E030E049A55AA56BA57CA5A1
:1036C00088EC92E00E94772026E636E646E650E453
:1036D0006DA57EA58FA598A90E944127AB01BC01CD
:1036E00022E030E088EC92E00E9477200E94F21BFA
:1036F00070930A0260930902E4960FB6F894DEBF55
:103700000FBECDBFDF91CF911F910F91FF90EF9032
:10371000DF90CF90BF90AF909F908F907F906F90F1
:103720005F904F903F902F9008958CE492E00E941C
:10373000490420E043E064E080E392E00E949C22A0
:103740008DE192E00C94EA0280E392E00C94FB227B
:103750001F920F920FB60F9211242F933F938F93C6
:103760009F93AF93BF938091BF029091C002A091AD
:10377000C102B091C2023091C702232F2D5F2D37B5
:1037800020F40196A11DB11D05C0232F2A570296D2
:10379000A11DB11D2093C7028093BF029093C00268
:1037A000A093C102B093C2028091C3029091C4025F
:1037B000A091C502B091C6020196A11DB11D8093D2
:1037C000C3029093C402A093C502B093C602BF91F6
:1037D000AF919F918F913F912F910F900FBE0F90BE
:1037E0001F9018950F931F938FB7F8940091BF0205
:1037F0001091C0022091C1023091C2028FBFB80166
:10380000C9011F910F9108950F931F939FB7F894CB
:103810000091C3021091C4022091C5023091C602EA
:1038200086B5A89B06C08F3F21F00F5F1F4F2F4F1B
:103830003F4F9FBF322F212F102F0027080F111D40
:10384000211D311D42E0000F111F221F331F4A9519
:10385000D1F7B801C9011F910F910895CF92DF925E
:10386000EF92FF92CF93DF936B017C010E94041CC7
:10387000EB010EC00E94041C6C1B7D0B683E734064
:1038800038F081E0C81AD108E108F108C851DC4FCE
:10389000C114D104E104F10469F7DF91CF91FF90E5
:1038A000EF90DF90CF900895789484B5826084BDC6
:1038B00084B5816084BD85B5826085BD85B5816034
:1038C00085BDEEE6F0E0808181608083E1E8F0E094
:1038D0001082808182608083808181608083E0E8C3
:1038E000F0E0808181608083E1EBF0E080818460A2
:1038F0008083E0EBF0E0808181608083EAE7F0E0A4
:103900008081846080838081826080838081816007
:1039100080838081806880831092C1000895FC01BB
:1039200084859585FC01E05CFF4F20813181FC019D
:10393000EE5BFF4F80819181281B390B2F7333275A
:10394000C9010895FC0184859585FC01E05CFF4F69
:1039500040815181FC01EE5BFF4F20813181421794
:10396000530741F00190F081E02DE80FF91F20810D
:1039700030E002C02FEF3FEFC9010895FC018485BC
:103980009585FC01E05CFF4F40815181FC01EE5BBD
:10399000FF4F208131814217530781F0A081B1810F
:1039A000A80FB91F8C91208131812F5F3F4F2F735A
:1039B000332731832083282F30E002C02FEF3FEFE1
:1039C000C9010895FC0186859785FC01E05CFF4FE5
:1039D000DC01AE5BBF4F408151812D913C9111972D
:1039E00042175307C1F70895CF93DF93FC018685F3
:1039F0009785DC01A05CBF4F2D913C9111972F5F03
:103A00003F4F2F733327EC01CE5BDF4F4881598145
:103A100024173507D9F30D90BC91A02DA80FB91F1D
:103A20006C93A685B785A05CBF4F11963C932E93EF
:103A3000A689B7892C9181E090E0058C02C0880F9F
:103A4000991F0A94E2F7282B2C9381E090E0DF91F4
:103A5000CF91089508951F920F920FB60F921124DF
:103A60002F933F934F938F939F93EF93FF934091A7
:103A7000C60080916B0390916C0301968F73992718
:103A800020916D0330916E038217930759F0E091F6
:103A90006B03F0916C03E55DFC4F408390936C03E6
:103AA00080936B03FF91EF919F918F914F913F9185
:103AB0002F910F900FBE0F901F90189588EC92E0F9
:103AC0000E948F1C892B11F00C942A1D08951F92BF
:103AD0000F920FB60F9211242F933F938F939F93C2
:103AE000EF93FF93209127033091280380912903BE
:103AF00090912A032817390731F48091C1008F7DF6
:103B00008093C10014C0E0912903F0912A03E95188
:103B1000FD4F20818091290390912A0301968F7394
:103B2000992790932A03809329032093C600FF913D
:103B3000EF919F918F913F912F910F900FBE0F901A
:103B40001F901895CF92DF92EF92FF92CF93DF9361
:103B5000EC016A017B01411581EE58076105710591
:103B6000F9F0EC89FD8981E090E00E8C02C0880FAD
:103B7000991F0A94E2F7808360E079E08DE390E09A
:103B8000A70196010E94C929215031094109510913
:103B90005695479537952795211580E1380798F078
:103BA000EC89FD89108260E874E88EE190E0A7015D
:103BB00096010E94C92921503109410951095695A0
:103BC000479537952795E889F9893083EA89FB89F4
:103BD0002083EE89FF89408181E090E09C010A8C7E
:103BE00002C0220F331F0A94E2F7422B4083EE8972
:103BF000FF8940819C010B8C02C0220F331F0A9465
:103C0000E2F7422B4083EE89FF8940819C010C8CB6
:103C100002C0220F331F0A94E2F7422B4083EE8941
:103C2000FF8920810D8C02C0880F991F0A94E2F74A
:103C3000809582238083DF91CF91FF90EF90DF907A
:103C4000CF9008951092CB021092CA0288EE93E0B2
:103C5000A0E0B0E08093CC029093CD02A093CE027E
:103C6000B093CF028EE991E09093C9028093C8028D
:103C70008BE293E09093D5028093D40287EE92E09A
:103C80009093D7028093D60285EC90E09093D9026E
:103C90008093D80284EC90E09093DB028093DA0268
:103CA00080EC90E09093DD028093DC0281EC90E068
:103CB0009093DF028093DE0286EC90E09093E10225
:103CC0008093E00284E08093E20283E08093E30249
:103CD00087E08093E40285E08093E50281E08093B1
:103CE000E60208950E94541C0E94F505CEE5DDE130
:103CF0000E94ED152097E1F30E945E1DF9CFCF924F
:103D0000DF92EF92FF920F931F93CF93DF936C019B
:103D1000EB017A01E60EF71E00E010E00BC069919E
:103D2000D601ED91FC910190F081E02DC60109953D
:103D3000080F191FCE15DF0591F7C801DF91CF914C
:103D40001F910F91FF90EF90DF90CF900895DB01CE
:103D50000D900020E9F7AD0141505109461B570B6A
:103D6000DC01ED91FC910280F381E02D0994EF924A
:103D7000FF920F931F93CF93DF937C01EB0100E041
:103D800010E0FE0121966491662351F0F701A081B5
:103D9000B181ED91FC91C7010995080F191FF1CF71
:103DA000C801DF91CF911F910F91FF90EF9008957F
:103DB0000C94A71EDC01ED91FC910190F081E02DA7
:103DC00009940F931F93CF93DF93EC016DE00E9452
:103DD000DA1E8C016AE0CE010E94DA1E9C01200FDF
:103DE000311FC901DF91CF911F910F9108950F935A
:103DF0001F93CF93DF93EC010E94B71E8C01CE017D
:103E00000E94E11E9C01200F311FC901DF91CF915B
:103E10001F910F9108950F931F93CF93DF93EC01A0
:103E20000E94A71E8C01CE010E94E11E9801280F5E
:103E3000391FC901DF91CF911F910F9108954F92C2
:103E40005F926F927F929F92AF92BF92CF92DF92DA
:103E5000EF92FF920F931F93CF93DF93CDB7DEB70F
:103E6000A1970FB6F894DEBF0FBECDBF5C016A010B
:103E70007B01922E19A281E0821710F08AE0982E21
:103E80008E010F5D1F4F492C512C612C712CC701E5
:103E9000B601A30192010E94C9298C2D929E80191E
:103EA0001124015011098A3014F4805D01C0895C2D
:103EB000F801808369017A01C114D104E104F1049D
:103EC00031F7B801C5010E94A71EA1960FB6F8945C
:103ED000DEBF0FBECDBFDF91CF911F910F91FF903D
:103EE000EF90DF90CF90BF90AF909F907F906F90BA
:103EF0005F904F900895CF92DF92EF92FF920F93D1
:103F00001F93CF93DF93EC016A017B0121153105EB
:103F100079F4E881F9810190F081E02D642FDF913F
:103F2000CF911F910F91FF90EF90DF90CF90099468
:103F30002A30310519F477FD0EC02AE0B701A60139
:103F4000CE01DF91CF911F910F91FF90EF90DF9005
:103F5000CF900C941F1F6DE20E94DA1E8C01442743
:103F60005527BA014C195D096E097F092AE0CE0177
:103F70000E941F1F080F191FC801DF91CF911F91C9
:103F80000F91FF90EF90DF90CF9008959A01AB01D1
:103F9000662757FD6095762F0C947B1F7F928F923A
:103FA0009F92AF92BF92CF92DF92EF92FF920F93C8
:103FB0001F93CF93DF938C014A015B01F22E20E027
:103FC00030E0A901C501B4010E943D2787FF0AC066
:103FD0006DE2C8010E94DA1EEC01B7FAB094B7F89E
:103FE000B09402C0C0E0D0E0E12C60E070E080E07E
:103FF0009FE307C020E030E040E251E40E94412707
:10400000E394EF10F7CF262F372F482F592FC501F4
:10401000B4010E946026762E872E982EA92E0E942B
:10402000AE27B62EC72ED82EE92E0E94DA279B0186
:10403000AC01672D782D892D9A2D0E945F26A62E22
:10404000972E882E792E2AE04B2D5C2D6D2D7E2DFE
:10405000C8010E941F1FC80FD91FFF20B9F16AEACB
:1040600071E0C8010E94A71EC80FD91F2FC020E011
:1040700030E040E251E46A2D792D882D972D0E9481
:10408000E428762EC72ED82EE92E0E94A9274B01B0
:10409000AA2497FCA094BA2C2AE030E0B501A40130
:1040A000C8010E947B1FC80FD91FC501B4010E941F
:1040B000DC279B01AC01672D7C2D8D2D9E2D0E9450
:1040C0005F26A62E972E882E792EFA94F110CFCF48
:1040D000CE01DF91CF911F910F91FF90EF90DF9074
:1040E000CF90BF90AF909F908F907F9008950C9449
:1040F000CE1F0F931F93CF93DF93EC010E94CE1F2F
:104100008C01CE010E94E11E9801280F391FC901C0
:10411000DF91CF911F910F9108952091B1033091BC
:10412000B20328173907C1F490916F03809170038F
:10413000981791F0E0916F03F0E0EF58FC4F808109
:1041400020916F0330E02F5F3F4F2F733327209371
:104150006F03282F30E002C02FEF3FEFC901089511
:104160002091B1033091B2032817390781F490915F
:104170006F0380917003981751F0E0916F03F0E0A6
:10418000EF58FC4F2081332727FD309502C02FEFD9
:104190003FEFC90108952091B1033091B203281770
:1041A000390739F48FB7F8941092700310926F03A7
:1041B0008FBF08952091B1033091B20328173907BA
:1041C00079F48091700320916F0390E0805C9F4FA1
:1041D000821B910960E470E00E94B5299C0102C035
:1041E00020E030E0C9010895DC015196ED91FC9189
:1041F0005297208150968C918095822380830895D8
:1042000020E001972FEF8F3F9207D9F70895EF92A3
:10421000FF920F931F93CF93DF93EC018B8DEE856D
:10422000FF859D8581FF04C08081892329F445C0D5
:104230008081892309F041C08B899C890E940021DB
:1042400008E010E0EE24E394F12C8D899E890E9411
:104250000021EE85FF8580819D85892311F0FE2850
:1042600003C08E2D8095F822EE0C0150110969F7DC
:104270008F89988D0E9400218B8D81FDF094809113
:10428000700320916F0390E001968F73992730E0BF
:104290008217930779F0E0917003F0E0EF58FC4F3C
:1042A000F0828091700390E001968F73992780933C
:1042B000700303C08B8D81608B8FDF91CF911F9135
:1042C0000F91FF90EF900895611102C00C94F420BB
:1042D000DC015196ED91FC915297208150968C9182
:1042E000282B20830895DF92EF92FF920F931F9364
:1042F000CF93DF93EC01E62E898D9A8D892B39F4CB
:1043000081E090E09B838A8320E030E049C0DFB603
:10431000F8946B8D66956170CE010E946421898D41
:104320009A8D05960E9400218B8D08E010E0FF24F5
:10433000F39481FF17C08F2D8E2121F0CE010E94B2
:10434000F42004C061E0CE010E946421898D9A8D21
:104350000E940021FF0C0150110969F7CE010E9453
:10436000F42017C08F2D8E2129F061E0CE010E942C
:10437000642103C0CE010E94F420898D9A8D0E9491
:104380000021FF0C0150110969F761E0CE010E9484
:104390006421DFBE898D9A8D0E94002121E030E0EA
:1043A000C901DF91CF911F910F91FF90EF90DF90A6
:1043B00008958091B1039091B203009711F00C948D
:1043C000072108951F920F920FB60F9211242F9379
:1043D0003F934F935F936F937F938F939F93AF938D
:1043E000BF93EF93FF930E94D921FF91EF91BF916B
:1043F000AF919F918F917F916F915F914F913F917D
:104400002F910F900FBE0F901F9018951F920F9233
:104410000FB60F9211242F933F934F935F936F9397
:104420007F938F939F93AF93BF93EF93FF930E94DC
:10443000D921FF91EF91BF91AF919F918F917F9182
:104440006F915F914F913F912F910F900FBE0F9001
:104450001F9018951F920F920FB60F9211242F9351
:104460003F934F935F936F937F938F939F93AF93FC
:10447000BF93EF93FF930E94D921FF91EF91BF91DA
:10448000AF919F918F917F916F915F914F913F91EC
:104490002F910F900FBE0F901F9018951F93CF93E1
:1044A000DF93EC01162F61E0812F0E94FC2361E075
:1044B000812F0E943424812F90E0FC01E95AFE4FA5
:1044C000E491E88BFC01E559FE4FE491F0E0EE0F3A
:1044D000FF1FE757FE4F85919491898B9A8BDF914F
:1044E000CF911F9108951F93CF93DF93EC01162F67
:1044F00060E0812F0E94FC238B8D81FD04C061E070
:10450000812F0E9434241C87812F90E0FC01E95AFE
:10451000FE4FE491ED87FC01E559FE4FE491F0E098
:10452000EE0FFF1FE158FE4F859194918E879F8774
:10453000DF91CF911F910895FF920F931F93CF9317
:10454000DF93EC01F62E522F1B821A8208EE13E045
:1045500020E030E00C831D832E833F8380EB91E0CD
:10456000998388831C8A1B8A1E8A1D8A188E1F8A3B
:104570001A8E198E8B8D8E7F50FB81F98B8F642F55
:10458000CE010E944E226F2DCE01DF91CF911F915F
:104590000F91FF900C947322FC014485463150F535
:1045A000483028F04E3030F4EBE6F0E005C0EDE6A0
:1045B000F0E002C0ECE6F0E05081483040F481E0E9
:1045C00090E0042E01C0880F0A94EAF710C0242F4F
:1045D00030E04E3018F42850310902C02E50310915
:1045E00081E090E0022E01C0880F0A94EAF78095DE
:1045F00085238083089520EB31E0FC013183208303
:104600000C94CC222091E30330E08091E403281B3A
:104610003109C90108958091E4039091E30389175A
:1046200050F4E82FF0E0EB51FC4F208130E08F5F39
:104630008093E40302C02FEF3FEFC9010895E0919A
:10464000E4038091E303E81730F4F0E0EB51FC4F12
:10465000208130E002C02FEF3FEFC9010895089597
:10466000CF92DF92EF92FF920F931F93CF93DF933E
:104670007C01CB018A012091BF03222391F0EB0141
:104680006B01C40ED51E09C06991D701ED91FC9153
:104690000190F081E02DC7010995CC15DD05A1F74A
:1046A00003C0642F0E940325C801DF91CF911F91A1
:1046B0000F91FF90EF90DF90CF900895CF93DF930D
:1046C0001F92CDB7DEB769832091BF032223D1F0BB
:1046D0002091C003203240F021E030E0FC01338320
:1046E000228320E030E015C08091C103E82FF0E084
:1046F000EE53FC4F998190838F5F8093C103809329
:10470000C00305C061E0CE0101960E94032521E0AF
:1047100030E0C9010F90DF91CF910895FC01138221
:10472000128248EE53E060E070E044835583668374
:10473000778380EC91E0918380830895862F4132C6
:1047400008F040E265EE73E00E946B241092E403EF
:104750008093E303089521E00C949E2381E08093ED
:10476000BF036093E2031092C1031092C003089547
:104770000F93062F21E04091C00362EC73E080911B
:10478000E2030E94B0241092C1031092C003109261
:10479000BF030F91089561E00C94B82383EB93E07D
:1047A0000C948E23833069F028F48130A1F082309C
:1047B00011F514C08630B1F08730C1F08430D9F4DF
:1047C00004C0809180008F7703C0809180008F7D2E
:1047D00080938000089584B58F7702C084B58F7D63
:1047E00084BD08958091B0008F7703C08091B000A0
:1047F0008F7D8093B0000895CF93DF9390E0FC010C
:10480000E95AFE4F4491FC01E559FE4F84918823FB
:1048100041F190E0880F991FFC01ED56FE4F259164
:104820003491D90187579E4FFC0185919491C82FEF
:10483000D92F9FB7F8948C91611106C040958423BD
:104840008C938881842308C0623041F4242F209502
:1048500082238C938881842B888302C0842B8C9341
:104860009FBFDF91CF9108950F931F93CF93DF9355
:104870001F92CDB7DEB7282F30E0F901ED5BFE4F78
:104880008491F901E95AFE4F1491F901E559FE4F5F
:1048900004910023D1F0882321F069830E94D22360
:1048A0006981E02FF0E0EE0FFF1FE757FE4F859183
:1048B0009491DC019FB7F8948C91611103C010951D
:1048C000812301C0812B8C939FBF0F90DF91CF91EB
:1048D0001F910F910895413208F03FC090910E044E
:1048E0009111FCCF91E090930E0420930C042FEFD4
:1048F0002093050410920A04242F215020930904C8
:1049000090930D0490910D04880F892B80930D04D2
:1049100080910B04813041F410920B0480910D04BE
:104920008093BB0085EC01C085EE8093BC00809134
:104930000E048130E1F380910A04841710F4409151
:104940000A042FE034E0FB01D90102C08D9181936C
:104950008A2F821B8417D0F301C040E0842F089572
:104960000F93413208F046C090910E049111FCCF94
:1049700092E090930E0400930C049FEF9093050433
:1049800010920A0440930904FB016FE074E0DB011C
:1049900002C091919D939A2F961B9417D0F3109279
:1049A0000D0490910D04880F892B80930D04809144
:1049B0000B04813041F410920B0480910D0480931C
:1049C000BB0085EC01C085EE8093BC00222321F062
:1049D00080910E048230E1F3809105048F3F61F0F5
:1049E00080910504803251F080910504803341F4B8
:1049F00083E007C081E005C080E003C082E001C021
:104A000084E00F910895613298F420910E042430CF
:104A100089F460930704FC018FE294E0DC0102C09A
:104A200021912D932A2F281B2617D0F380E008957B
:104A300081E0089582E0089585ED8093BC00809127
:104A4000BC0084FDFCCF10920E04089585EC809389
:104A5000BC0010920E0408951F920F920FB60F9291
:104A600011242F933F934F935F936F937F938F9373
:104A70009F93AF93BF93EF93FF938091B900887F8B
:104A8000803609F49FC058F5883209F45BC090F471
:104A9000803109F452C038F4882309F4F8C0883012
:104AA00009F0F9C04AC0883109F44CC0803209F0DD
:104AB000F2C05CC0803409F46BC038F4803309F470
:104AC00055C0883309F0E7C054C0803509F454C09C
:104AD000883509F462C0883409F0DDC0DAC088394D
:104AE00009F4CBC0A8F4883709F46CC038F48836D0
:104AF00009F468C0803709F0CEC064C0883809F472
:104B0000BCC0803909F464C0803809F0C4C060C0FA
:104B1000803B09F48AC038F4803A09F46BC0883AC3
:104B200009F0B9C082C0803C09F4ABC0883C09F4EC
:104B3000A8C0883B09F0AFC08DC080910D04809360
:104B4000BB0012C090910A0480910904981788F55F
:104B500080910A04E82FF0E0E15FFB4F9081909391
:104B6000BB008F5F80930A0485EC88C080930504A6
:104B700090C08093050456C080910A049091BB00B8
:104B8000E82FF0E0E15FFB4F90838F5F80930A0492
:104B900090910A04809109046DC080910A0490915B
:104BA000BB00E82FF0E0E15FFB4F90838F5F8093C5
:104BB0000A0480910C0481116CC081E080930B0485
:104BC00084EA60C083E080930E0410920604CCCF88
:104BD00080910604803208F050C0809106049091C4
:104BE000BB00E82FF0E0ED5AFB4F90838F5F80937E
:104BF0000604BACF80910604803230F4E0910604B6
:104C0000F0E0ED5AFB4F10820E941C2560910604D3
:104C1000E0914F04F091500470E083E594E0099531
:104C2000109206040E94262536C084E080930E046C
:104C30001092080410920704E0915104F09152047C
:104C4000099580910704811105C081E080930704D4
:104C500010922F0480910804E82FF0E0E15DFB4FF3
:104C600090819093BB008F5F80930804909108041B
:104C700080910704981708F477CF85E88093BC00EB
:104C80000AC085EC8093BC0010920E0404C0109200
:104C900005040E941C25FF91EF91BF91AF919F9158
:104CA0008F917F916F915F914F913F912F910F90D5
:104CB0000FBE0F901F901895F8940C94F12950583E
:104CC000BB27AA270ED03FC230D230F035D220F019
:104CD00031F49F3F11F41EF4EFC10EF4E095E7FBB1
:104CE000E5C1E92F41D280F3BA1762077307840741
:104CF000950718F071F49EF559C20EF4E0950B2E4D
:104D0000BA2FA02D0B01B90190010C01CA01A0011D
:104D10001124FF27591B99F0593F50F4503E68F178
:104D20001A16F040A22F232F342F4427585FF3CFB9
:104D3000469537952795A795F0405395C9F77EF48A
:104D40001F16BA0B620B730B840BBAF09150A1F0D3
:104D5000FF0FBB1F661F771F881FC2F70EC0BA0F59
:104D6000621F731F841F48F4879577956795B795E1
:104D7000F7959E3F08F0B3CF9395880F08F09927D9
:104D8000EE0F9795879508959F939F77EEE3893768
:104D90009E0720F4E8E6F0E0B7D109C048D190586A
:104DA000A2EA2AED3FE049EC5FE39BDFCCD10F9014
:104DB00007FC90580895B9D158F080E891E009F4C3
:104DC0009EEFBAD128F040E851E059F45EEF09C0F7
:104DD00073C1ECC1E92FE078C7D168F3092E052A29
:104DE000C1F3261737074807590738F00E2E07F882
:104DF000E02569F0E025E0640AC0EF6307F800945D
:104E000007FADB01B9019D01DC01CA01AD01EF9395
:104E100047D099D10AD05F91552331F02BED3FE077
:104E200049E450FD49EC4CCF0895DF93DD27B92FBD
:104E3000BF7740E85FE31616170648075B0710F4D4
:104E4000D92FBBD19F938F937F936F9362D2ECE75F
:104E5000F0E035D178D12F913F914F915F91C0D142
:104E6000DD2349F09058A2EA2AED3FE049EC5FE3E8
:104E7000D0785D2736DFDF9166C1F4D008F481E099
:104E800008950CD060C158D140F04FD130F021F4DA
:104E90005F3F19F00BC151118AC10EC165D198F362
:104EA0009923C9F35523B1F3951B550BBB27AA27AB
:104EB00062177307840738F09F5F5F4F220F331F1D
:104EC000441FAA1FA9F333D00E2E3AF0E0E830D0E9
:104ED00091505040E695001CCAF729D0FE2F27D0EC
:104EE000660F771F881FBB1F261737074807AB07BA
:104EF000B0E809F0BB0B802DBF01FF2793585F4F2F
:104F00002AF09E3F510568F0D1C051C15F3FECF3DC
:104F1000983EDCF3869577956795B795F7959F5FF3
:104F2000C9F7880F911D9695879597F90895E1E047
:104F3000660F771F881FBB1F621773078407BA07A6
:104F400020F0621B730B840BBA0BEE1F88F7E09501
:104F5000089504D06894B1112AC108950DD188F044
:104F60009F5790F0B92F9927B751A0F0D1F0660F55
:104F7000771F881F991F1AF0BA95C9F712C0B13070
:104F800081F014D1B1E0089511C1672F782F8827DF
:104F9000B85F39F0B93FCCF3869577956795B395AF
:104FA000D9F73EF490958095709561957F4F8F4F1E
:104FB0009F4F0895E89409C097FB3EF49095809523
:104FC000709561957F4F8F4F9F4F9923A9F0F92FCF
:104FD00096E9BB279395F695879577956795B7954D
:104FE000F111F8CFFAF4BB0F11F460FF1BC06F5F33
:104FF0007F4F8F4F9F4F16C0882311F096E911C045
:10500000772321F09EE8872F762F05C0662371F065
:1050100096E8862F70E060E02AF09A95660F771F79
:10502000881FDAF7880F9695879597F90895DF938B
:10503000CF931F930F938B01EC01E9EAF0E03FD08F
:1050400082D09801AE018B01EC0160E070E080E855
:105050009FE335DE20D19801AE010F911F91CF91D2
:10506000DF91BEC0990F0008550FAA0BE0E8FEEFD4
:1050700016161706E807F907C0F012161306E4071C
:10508000F50798F0621B730B840B950B39F40A2615
:1050900061F0232B242B252B21F408950A2609F4F3
:1050A000A140A6958FEF811D811D089597F99F67F7
:1050B00080E870E060E008959FEF80EC0895DF9352
:1050C000CF931F930F93FF92EF92DF927B018C019E
:1050D000689405C0DA2EEF0183D0FE01E894A59113
:1050E0002591359145915591AEF3EF01FADDFE0121
:1050F0009701A801DA9479F7DF90EF90FF900F9174
:105100001F91CF91DF9108959F938F937F936F931A
:10511000FF93EF939B01AC0157D0EF91FF91CFDF4D
:105120002F913F914F915F914FC000240A94161622
:10513000170618060906089500240A941216130685
:10514000140605060895092E0394000C11F4882313
:1051500052F0BB0F40F4BF2B11F460FF04C06F5F2F
:105160007F4F8F4F9F4F089557FD9058440F551F05
:1051700059F05F3F71F04795880F97FB991F61F0D9
:105180009F3F79F087950895121613061406551F50
:10519000F2CF4695F1DF08C0161617061806991FBC
:1051A000F1CF86957105610508940895E894BB27B1
:1051B00066277727CB0197F908959B01AC0160E042
:1051C00070E080E89FE35DCE0BD0BDCFAEDF28F06E
:1051D000B3DF18F0952309F069CF6ECF1124E7CF24
:1051E000C3DFA0F3959FD1F3950F50E0551F629F49
:1051F000F001729FBB27F00DB11D639FAA27F00D30
:10520000B11DAA1F649F6627B00DA11D661F829F56
:105210002227B00DA11D621F739FB00DA11D621F3B
:10522000839FA00D611D221F749F3327A00D611D58
:10523000231F849F600D211D822F762F6A2F11243A
:105240009F5750408AF0E1F088234AF0EE0FFF1F8D
:10525000BB1F661F771F881F91505040A9F79E3FC4
:10526000510570F023CFA3CF5F3FECF3983EDCF302
:10527000869577956795B795F795E7959F5FC1F701
:10528000FE2B880F911D9695879597F9089511F437
:105290000EF412CF41C070DFD0F39923D9F3CEF3CF
:1052A0009F57550B87FF46D00024A0E640EA9001A7
:1052B00080585695979528F4805C660F771F881F55
:1052C00020F026173707480730F4621B730B840B56
:1052D000202931294A2BA69517940794202531259A
:1052E0004A2758F7660F771F881F20F026173707C1
:1052F000480730F4620B730B840B200D311D411DE8
:10530000A09581F7B901842F9158880F96958795BC
:1053100008959B01AC0158CF9F3F31F0915020F48C
:10532000879577956795B795880F911D9695879581
:1053300097F9089591505040660F771F881FD2F754
:105340000895AA1BBB1B51E107C0AA1FBB1FA617CC
:10535000B70710F0A61BB70B881F991F5A95A9F71E
:1053600080959095BC01CD01089597FB072E16F40A
:10537000009407D077FD09D00E94A12907FC05D031
:105380003EF4909581959F4F0895709561957F4F5C
:105390000895A1E21A2EAA1BBB1BFD010DC0AA1F76
:1053A000BB1FEE1FFF1FA217B307E407F50720F08E
:1053B000A21BB30BE40BF50B661F771F881F991F09
:1053C0001A9469F760957095809590959B01AC0152
:1053D000BD01CF010895EE0FFF1F0590F491E02D60
:1053E000099411E0C4EAD1E004C0FE010E94ED2955
:0C53F0002296C63AD107C9F7F894FFCF07
:1053FC00E8030000803F00000000000000000000F7
:10540C0000006178203D2000206179203D200020A3
:10541C00617A203D2000206D67006778203D2000D8
:10542C00206779203D200020677A203D20002064F1
:10543C0065672F73006D78203D2000206D79203D2D
:10544C002000206D7A203D2000206D470071302017
:10545C003D2000207178203D2000207179203D20D6
:10546C000020717A203D20005961772C20506974FE
:10547C0063682C20526F6C6C3A20002C20007261F7
:10548C007465203D200020487A0000000000F41CC8
:10549C007F1E8F1CBE1CA21CE21C2E0000000000F4
:1054AC0073217F1EDA208D20B020CB20000000005D
:0C54BC005E23302302230B231F232F2329
:00000001FF
